{
  "contractName": "AltBn128",
  "abi": [
    {
      "constant": true,
      "inputs": [],
      "name": "P",
      "outputs": [
        {
          "name": "",
          "type": "uint256"
        }
      ],
      "payable": false,
      "stateMutability": "view",
      "type": "function"
    },
    {
      "constant": true,
      "inputs": [],
      "name": "G1y",
      "outputs": [
        {
          "name": "",
          "type": "uint256"
        }
      ],
      "payable": false,
      "stateMutability": "view",
      "type": "function"
    },
    {
      "constant": true,
      "inputs": [],
      "name": "G1x",
      "outputs": [
        {
          "name": "",
          "type": "uint256"
        }
      ],
      "payable": false,
      "stateMutability": "view",
      "type": "function"
    },
    {
      "constant": true,
      "inputs": [],
      "name": "N",
      "outputs": [
        {
          "name": "",
          "type": "uint256"
        }
      ],
      "payable": false,
      "stateMutability": "view",
      "type": "function"
    },
    {
      "constant": true,
      "inputs": [],
      "name": "A",
      "outputs": [
        {
          "name": "",
          "type": "uint256"
        }
      ],
      "payable": false,
      "stateMutability": "view",
      "type": "function"
    },
    {
      "constant": true,
      "inputs": [
        {
          "name": "p0",
          "type": "uint256[2]"
        },
        {
          "name": "p1",
          "type": "uint256[2]"
        }
      ],
      "name": "ecAdd",
      "outputs": [
        {
          "name": "retP",
          "type": "uint256[2]"
        }
      ],
      "payable": false,
      "stateMutability": "view",
      "type": "function"
    },
    {
      "constant": true,
      "inputs": [
        {
          "name": "p",
          "type": "uint256[2]"
        },
        {
          "name": "s",
          "type": "uint256"
        }
      ],
      "name": "ecMul",
      "outputs": [
        {
          "name": "retP",
          "type": "uint256[2]"
        }
      ],
      "payable": false,
      "stateMutability": "view",
      "type": "function"
    },
    {
      "constant": true,
      "inputs": [
        {
          "name": "s",
          "type": "uint256"
        }
      ],
      "name": "ecMulG",
      "outputs": [
        {
          "name": "retP",
          "type": "uint256[2]"
        }
      ],
      "payable": false,
      "stateMutability": "view",
      "type": "function"
    },
    {
      "constant": true,
      "inputs": [
        {
          "name": "base",
          "type": "uint256"
        },
        {
          "name": "e",
          "type": "uint256"
        },
        {
          "name": "m",
          "type": "uint256"
        }
      ],
      "name": "powmod",
      "outputs": [
        {
          "name": "o",
          "type": "uint256"
        }
      ],
      "payable": false,
      "stateMutability": "view",
      "type": "function"
    },
    {
      "constant": true,
      "inputs": [
        {
          "name": "x",
          "type": "uint256"
        },
        {
          "name": "n",
          "type": "uint256"
        }
      ],
      "name": "addmodn",
      "outputs": [
        {
          "name": "",
          "type": "uint256"
        }
      ],
      "payable": false,
      "stateMutability": "pure",
      "type": "function"
    },
    {
      "constant": true,
      "inputs": [
        {
          "name": "x",
          "type": "uint256"
        }
      ],
      "name": "modn",
      "outputs": [
        {
          "name": "",
          "type": "uint256"
        }
      ],
      "payable": false,
      "stateMutability": "pure",
      "type": "function"
    },
    {
      "constant": true,
      "inputs": [
        {
          "name": "x",
          "type": "uint256"
        },
        {
          "name": "y",
          "type": "uint256"
        }
      ],
      "name": "onCurve",
      "outputs": [
        {
          "name": "",
          "type": "bool"
        }
      ],
      "payable": false,
      "stateMutability": "pure",
      "type": "function"
    },
    {
      "constant": true,
      "inputs": [
        {
          "name": "beta",
          "type": "uint256"
        },
        {
          "name": "y",
          "type": "uint256"
        }
      ],
      "name": "onCurveBeta",
      "outputs": [
        {
          "name": "",
          "type": "bool"
        }
      ],
      "payable": false,
      "stateMutability": "pure",
      "type": "function"
    },
    {
      "constant": true,
      "inputs": [
        {
          "name": "x",
          "type": "uint256"
        }
      ],
      "name": "evalCurve",
      "outputs": [
        {
          "name": "",
          "type": "uint256"
        },
        {
          "name": "",
          "type": "uint256"
        }
      ],
      "payable": false,
      "stateMutability": "view",
      "type": "function"
    }
  ],
  "bytecode": "0x610a6f610026600b82828239805160001a60731461001957fe5b30600052607381538281f3fe73000000000000000000000000000000000000000030146080604052600436106100f45760003560e01c8063a1807b9c11610096578063c690219b11610070578063c690219b14610482578063c9e525df146104cb578063e76ee242146104e9578063f446c1d014610535576100f4565b8063a1807b9c14610364578063a867d0ca14610382578063b93af8e014610464576100f4565b8063669d9448116100d2578063669d9448146101fb57806371de37241461024b57806381dd69fe146102f65780638b8fbd9214610346576100f4565b8063309ef832146100f957806345c373181461014f5780634f06f279146101b9575b600080fd5b6101396004803603606081101561010f57600080fd5b81019080803590602001909291908035906020019092919080359060200190929190505050610553565b6040518082815260200191505060405180910390f35b61017b6004803603602081101561016557600080fd5b81019080803590602001909291905050506105aa565b6040518082600260200280838360005b838110156101a657808201518184015260208101905061018b565b5050505090500191505060405180910390f35b6101e5600480360360208110156101cf57600080fd5b8101908080359060200190929190505050610617565b6040518082815260200191505060405180910390f35b6102316004803603604081101561021157600080fd5b81019080803590602001909291908035906020019092919050505061064a565b604051808215151515815260200191505060405180910390f35b6102b86004803603606081101561026157600080fd5b8101908080604001906002806020026040519081016040528092919082600260200280828437600081840152601f19601f8201169050808301925050505050509192919290803590602001909291905050506106e8565b6040518082600260200280838360005b838110156102e35780820151818401526020810190506102c8565b5050505090500191505060405180910390f35b61032c6004803603604081101561030c57600080fd5b810190808035906020019092919080359060200190929190505050610753565b604051808215151515815260200191505060405180910390f35b61034e61078a565b6040518082815260200191505060405180910390f35b61036c6107ae565b6040518082815260200191505060405180910390f35b6104266004803603608081101561039857600080fd5b8101908080604001906002806020026040519081016040528092919082600260200280828437600081840152601f19601f820116905080830192505050505050919291929080604001906002806020026040519081016040528092919082600260200280828437600081840152601f19601f82011690508083019250505050505091929192905050506107d2565b6040518082600260200280838360005b83811015610451578082015181840152602081019050610436565b5050505090500191505060405180910390f35b61046c610865565b6040518082815260200191505060405180910390f35b6104ae6004803603602081101561049857600080fd5b8101908080359060200190929190505050610889565b604051808381526020018281526020019250505060405180910390f35b6104d361097f565b6040518082815260200191505060405180910390f35b61051f600480360360408110156104ff57600080fd5b8101908080359060200190929190803590602001909291905050506109a3565b6040518082815260200191505060405180910390f35b61053d6109d8565b6040518082815260200191505060405180910390f35b600060405160208152602080820152602060408201528460608201528360808201528260a082015260208160c08360056107d05a03fa80600081146105975761059c565b600080fd5b508151925050509392505050565b6105b26109dd565b61061060405180604001604052807f79be667ef9dcbbac55a06295ce870b07029bfcdb2dce28d959f2815b16f8179881526020017f483ada7726a3c4655da4fbfc0e1108a8fd17b448a68554199c47d08ffb10d4b8815250836106e8565b9050919050565b60007ffffffffffffffffffffffffffffffffebaaedce6af48a03bbfd25e8cd0364141828161064257fe5b069050919050565b6000807ffffffffffffffffffffffffffffffffffffffffffffffffffffffffefffffc2f8061067557fe5b84850990507ffffffffffffffffffffffffffffffffffffffffffffffffffffffffefffffc2f806106a257fe5b84820990507ffffffffffffffffffffffffffffffffffffffffffffffffffffffffefffffc2f806106cf57fe5b6007820890506106df8184610753565b91505092915050565b6106f06109dd565b6106f86109ff565b60405180606001604052808560006002811061071057fe5b602002015181526020018560016002811061072757fe5b602002015181526020018481525090506040826060836007600019fa61074c57600080fd5b5092915050565b60007ffffffffffffffffffffffffffffffffffffffffffffffffffffffffefffffc2f8061077d57fe5b8283098314905092915050565b7ffffffffffffffffffffffffffffffffffffffffffffffffffffffffefffffc2f81565b7f483ada7726a3c4655da4fbfc0e1108a8fd17b448a68554199c47d08ffb10d4b881565b6107da6109dd565b6107e2610a21565b6040518060800160405280856000600281106107fa57fe5b602002015181526020018560016002811061081157fe5b602002015181526020018460006002811061082857fe5b602002015181526020018460016002811061083f57fe5b602002015181525090506040826080836006600019fa61085e57600080fd5b5092915050565b7f79be667ef9dcbbac55a06295ce870b07029bfcdb2dce28d959f2815b16f8179881565b60008060007ffffffffffffffffffffffffffffffffffffffffffffffffffffffffefffffc2f806108b657fe5b84850990507ffffffffffffffffffffffffffffffffffffffffffffffffffffffffefffffc2f806108e357fe5b84820990507ffffffffffffffffffffffffffffffffffffffffffffffffffffffffefffffc2f8061091057fe5b600782089050600061097082600460017ffffffffffffffffffffffffffffffffffffffffffffffffffffffffefffffc2f018161094957fe5b047ffffffffffffffffffffffffffffffffffffffffffffffffffffffffefffffc2f610553565b90508181935093505050915091565b7ffffffffffffffffffffffffffffffffebaaedce6af48a03bbfd25e8cd036414181565b60007ffffffffffffffffffffffffffffffffebaaedce6af48a03bbfd25e8cd0364141806109cd57fe5b828408905092915050565b600081565b6040518060400160405280600290602082028038833980820191505090505090565b6040518060600160405280600390602082028038833980820191505090505090565b604051806080016040528060049060208202803883398082019150509050509056fea165627a7a7230582063cc09b9ed377fb11c289f455c6522271d00dcd872f871f4a775d01a9303395d0029",
  "source": "pragma solidity >=0.4.0 <0.6.0;\n\n/** \n * Heavily referenced from https://github.com/ethereum/py_ecc/blob/master/py_ecc/bn128/bn128_curve.py\n*/\n\nlibrary AltBn128 {\n    uint256 constant public G1x = uint256(0x79BE667EF9DCBBAC55A06295CE870B07029BFCDB2DCE28D959F2815B16F81798);\n    uint256 constant public G1y = uint256(0x483ADA7726A3C4655DA4FBFC0E1108A8FD17B448A68554199C47D08FFB10D4B8);\n\n    // Number of elements in the field (often called `q`)\n    // n = n(u) = 36u^4 + 36u^3 + 18u^2 + 6u + 1\n    uint256 constant public N = 0xFFFFFFFFFFFFFFFFFFFFFFFFFFFFFFFEBAAEDCE6AF48A03BBFD25E8CD0364141;\n\n    // p = p(u) = 36u^4 + 36u^3 + 24u^2 + 6u + 1\n    // Field Order\n    uint256 constant public P = 0xFFFFFFFFFFFFFFFFFFFFFFFFFFFFFFFFFFFFFFFFFFFFFFFFFFFFFFFEFFFFFC2F;\n\n    // (p+1) / 4\n    uint256 constant public A = 0x0;\n\n    // uint256 constant public G1x = uint256(0x01);\n    // uint256 constant public G1y = uint256(0x02);\n\n    // // Number of elements in the field (often called `q`)\n    // // n = n(u) = 36u^4 + 36u^3 + 18u^2 + 6u + 1\n    // uint256 constant public N = 0x30644e72e131a029b85045b68181585d2833e84879b9709143e1f593f0000001;\n\n    // // p = p(u) = 36u^4 + 36u^3 + 24u^2 + 6u + 1\n    // // Field Order\n    // uint256 constant public P = 0x30644e72e131a029b85045b68181585d97816a916871ca8d3c208c16d87cfd47;\n\n    // // (p+1) / 4\n    // uint256 constant public A = 0xc19139cb84c680a6e14116da060561765e05aa45a1c72a34f082305b61f3f52;\n\n    /* ECC Functions */\n    function ecAdd(uint256[2] memory p0, uint256[2] memory p1) public view\n        returns (uint256[2] memory retP)\n    {\n        uint256[4] memory i = [p0[0], p0[1], p1[0], p1[1]];\n        \n        assembly {\n            // call ecadd precompile\n            // inputs are: x1, y1, x2, y2\n            if iszero(staticcall(not(0), 0x06, i, 0x80, retP, 0x40)) {\n                revert(0, 0)\n            }\n        }\n    }\n\n    function ecMul(uint256[2] memory p, uint256 s) public view\n        returns (uint256[2] memory retP)\n    {\n        // With a public key (x, y), this computes p = scalar * (x, y).\n        uint256[3] memory i = [p[0], p[1], s];\n        \n        assembly {\n            // call ecmul precompile\n            // inputs are: x, y, scalar\n            if iszero(staticcall(not(0), 0x07, i, 0x60, retP, 0x40)) {\n                revert(0, 0)\n            }\n        }\n    }\n\n    function ecMulG(uint256 s) public view\n        returns (uint256[2] memory retP)\n    {\n        return ecMul([G1x, G1y], s);\n    }\n\n    function powmod(uint256 base, uint256 e, uint256 m) public view\n        returns (uint256 o)\n    {\n        // returns pow(base, e) % m\n        assembly {\n            // define pointer\n            let p := mload(0x40)\n\n            // Store data assembly-favouring ways\n            mstore(p, 0x20)             // Length of Base\n            mstore(add(p, 0x20), 0x20)  // Length of Exponent\n            mstore(add(p, 0x40), 0x20)  // Length of Modulus\n            mstore(add(p, 0x60), base)  // Base\n            mstore(add(p, 0x80), e)     // Exponent\n            mstore(add(p, 0xa0), m)     // Modulus\n\n            // call modexp precompile! -- old school gas handling\n            let success := staticcall(sub(gas, 2000), 0x05, p, 0xc0, p, 0x20)\n\n            // gas fiddling\n            switch success case 0 {\n                revert(0, 0)\n            }\n\n            // data\n            o := mload(p)\n        }\n    }\n\n    // Keep everything contained within this lib\n    function addmodn(uint256 x, uint256 n) public pure\n        returns (uint256)\n    {\n        return addmod(x, n, N);\n    }\n\n    function modn(uint256 x) public pure\n        returns (uint256)\n    {\n        return x % N;\n    }\n\n    /*\n       Checks if the points x, y exists on alt_bn_128 curve\n    */\n    function onCurve(uint256 x, uint256 y) public pure\n        returns(bool)\n    {\n        uint256 beta = mulmod(x, x, P);\n        beta = mulmod(beta, x, P);\n        beta = addmod(beta, 7, P);\n\n        return onCurveBeta(beta, y);\n    }\n\n    function onCurveBeta(uint256 beta, uint256 y) public pure\n        returns(bool)\n    {\n        return beta == mulmod(y, y, P);\n    }\n\n    /*\n    * Calculates point y value given x\n    */\n    function evalCurve(uint256 x) public view\n        returns (uint256, uint256)\n    {\n        uint256 beta = mulmod(x, x, P);\n        beta = mulmod(beta, x, P);\n        beta = addmod(beta, 7, P);\n\n        uint256 y = powmod(beta, (P + 1)/4, P);\n\n        // require(beta == mulmod(y, y, P), \"Invalid x for evalCurve\");\n        return (beta, y);\n    }\n}",
  "sourcePath": "/Users/suchetaaa/Desktop/Academics @IITB/Semester VII/Cryptocurrency/E-Voting/contracts/AltBn128.sol",
  "compiler": {
    "name": "solc",
    "version": "0.5.8+commit.23d335f2.Emscripten.clang"
  },
  "schemaVersion": "3.0.16",
  "updatedAt": "2019-10-16T06:39:15.515Z",
  "devdoc": {
    "methods": {}
  },
  "userdoc": {
    "methods": {},
    "notice": "Heavily referenced from https://github.com/ethereum/py_ecc/blob/master/py_ecc/bn128/bn128_curve.py"
  }
}