{
  "contractName": "EllipticCurve",
  "abi": [
    {
      "constant": true,
      "inputs": [
        {
          "name": "_x",
          "type": "uint256"
        },
        {
          "name": "_pp",
          "type": "uint256"
        }
      ],
      "name": "invMod",
      "outputs": [
        {
          "name": "",
          "type": "uint256"
        }
      ],
      "payable": false,
      "stateMutability": "pure",
      "type": "function"
    },
    {
      "constant": true,
      "inputs": [
        {
          "name": "_base",
          "type": "uint256"
        },
        {
          "name": "_exp",
          "type": "uint256"
        },
        {
          "name": "_pp",
          "type": "uint256"
        }
      ],
      "name": "expMod",
      "outputs": [
        {
          "name": "",
          "type": "uint256"
        }
      ],
      "payable": false,
      "stateMutability": "pure",
      "type": "function"
    },
    {
      "constant": true,
      "inputs": [
        {
          "name": "_x",
          "type": "uint256"
        },
        {
          "name": "_y",
          "type": "uint256"
        },
        {
          "name": "_z",
          "type": "uint256"
        },
        {
          "name": "_pp",
          "type": "uint256"
        }
      ],
      "name": "toAffine",
      "outputs": [
        {
          "name": "",
          "type": "uint256"
        },
        {
          "name": "",
          "type": "uint256"
        }
      ],
      "payable": false,
      "stateMutability": "pure",
      "type": "function"
    },
    {
      "constant": true,
      "inputs": [
        {
          "name": "_prefix",
          "type": "uint8"
        },
        {
          "name": "_x",
          "type": "uint256"
        },
        {
          "name": "_aa",
          "type": "uint256"
        },
        {
          "name": "_bb",
          "type": "uint256"
        },
        {
          "name": "_pp",
          "type": "uint256"
        }
      ],
      "name": "deriveY",
      "outputs": [
        {
          "name": "",
          "type": "uint256"
        },
        {
          "name": "",
          "type": "uint256"
        }
      ],
      "payable": false,
      "stateMutability": "pure",
      "type": "function"
    },
    {
      "constant": true,
      "inputs": [
        {
          "name": "_x",
          "type": "uint256"
        },
        {
          "name": "_y",
          "type": "uint256"
        },
        {
          "name": "_aa",
          "type": "uint256"
        },
        {
          "name": "_bb",
          "type": "uint256"
        },
        {
          "name": "_pp",
          "type": "uint256"
        }
      ],
      "name": "isOnCurve",
      "outputs": [
        {
          "name": "",
          "type": "bool"
        }
      ],
      "payable": false,
      "stateMutability": "pure",
      "type": "function"
    },
    {
      "constant": true,
      "inputs": [
        {
          "name": "_x",
          "type": "uint256"
        },
        {
          "name": "_y",
          "type": "uint256"
        },
        {
          "name": "_pp",
          "type": "uint256"
        }
      ],
      "name": "ecInv",
      "outputs": [
        {
          "name": "",
          "type": "uint256"
        },
        {
          "name": "",
          "type": "uint256"
        }
      ],
      "payable": false,
      "stateMutability": "pure",
      "type": "function"
    },
    {
      "constant": true,
      "inputs": [
        {
          "name": "_x1",
          "type": "uint256"
        },
        {
          "name": "_y1",
          "type": "uint256"
        },
        {
          "name": "_x2",
          "type": "uint256"
        },
        {
          "name": "_y2",
          "type": "uint256"
        },
        {
          "name": "_aa",
          "type": "uint256"
        },
        {
          "name": "_pp",
          "type": "uint256"
        }
      ],
      "name": "ecAdd",
      "outputs": [
        {
          "name": "",
          "type": "uint256"
        },
        {
          "name": "",
          "type": "uint256"
        }
      ],
      "payable": false,
      "stateMutability": "pure",
      "type": "function"
    },
    {
      "constant": true,
      "inputs": [
        {
          "name": "_x1",
          "type": "uint256"
        },
        {
          "name": "_y1",
          "type": "uint256"
        },
        {
          "name": "_x2",
          "type": "uint256"
        },
        {
          "name": "_y2",
          "type": "uint256"
        },
        {
          "name": "_aa",
          "type": "uint256"
        },
        {
          "name": "_pp",
          "type": "uint256"
        }
      ],
      "name": "ecSub",
      "outputs": [
        {
          "name": "",
          "type": "uint256"
        },
        {
          "name": "",
          "type": "uint256"
        }
      ],
      "payable": false,
      "stateMutability": "pure",
      "type": "function"
    },
    {
      "constant": true,
      "inputs": [
        {
          "name": "_k",
          "type": "uint256"
        },
        {
          "name": "_x",
          "type": "uint256"
        },
        {
          "name": "_y",
          "type": "uint256"
        },
        {
          "name": "_aa",
          "type": "uint256"
        },
        {
          "name": "_pp",
          "type": "uint256"
        }
      ],
      "name": "ecMul",
      "outputs": [
        {
          "name": "",
          "type": "uint256"
        },
        {
          "name": "",
          "type": "uint256"
        }
      ],
      "payable": false,
      "stateMutability": "pure",
      "type": "function"
    }
  ],
  "bytecode": "0x6111e6610026600b82828239805160001a60731461001957fe5b30600052607381538281f3fe730000000000000000000000000000000000000000301460806040526004361061009d5760003560e01c80637559d550116100705780637559d550146102485780638ba5ceeb146102a5578063ad69caa514610319578063c4371a1c1461036f578063c5e45aa4146103d65761009d565b80631b54f824146100a2578063364b62d5146100ee57806337103a671461015f5780635bf11ed3146101cd575b600080fd5b6100d8600480360360408110156100b857600080fd5b810190808035906020019092919080359060200190929190505050610451565b6040518082815260200191505060405180910390f35b610142600480360360a081101561010457600080fd5b81019080803590602001909291908035906020019092919080359060200190929190803590602001909291908035906020019092919050505061054b565b604051808381526020018281526020019250505060405180910390f35b6101b3600480360360a081101561017557600080fd5b810190808035906020019092919080359060200190929190803590602001909291908035906020019092919080359060200190929190505050610585565b604051808215151515815260200191505060405180910390f35b61022b600480360360c08110156101e357600080fd5b81019080803590602001909291908035906020019092919080359060200190929190803590602001909291908035906020019092919080359060200190929190505050610627565b604051808381526020018281526020019250505060405180910390f35b6102886004803603606081101561025e57600080fd5b8101908080359060200190929190803590602001909291908035906020019092919050505061065b565b604051808381526020018281526020019250505060405180910390f35b6102fc600480360360a08110156102bb57600080fd5b81019080803560ff16906020019092919080359060200190929190803590602001909291908035906020019092919080359060200190929190505050610677565b604051808381526020018281526020019250505060405180910390f35b6103596004803603606081101561032f57600080fd5b810190808035906020019092919080359060200190929190803590602001909291905050506106df565b6040518082815260200191505060405180910390f35b6103b96004803603608081101561038557600080fd5b810190808035906020019092919080359060200190929190803590602001909291908035906020019092919050505061080d565b604051808381526020018281526020019250505060405180910390f35b610434600480360360c08110156103ec57600080fd5b81019080803590602001909291908035906020019092919080359060200190929190803590602001909291908035906020019092919080359060200190929190505050610868565b604051808381526020018281526020019250505060405180910390f35b60008083148061046057508183145b8061046b5750600082145b156104de576040517f08c379a000000000000000000000000000000000000000000000000000000000815260040180806020018281038252600e8152602001807f496e76616c6964206e756d62657200000000000000000000000000000000000081525060200191505060405180910390fd5b60008090506000600190506000849050600086905060005b6000821461053d5781838161050757fe5b04905083878061051357fe5b888061051b57fe5b86840989038708809550819650505081828202840380935081945050506104f6565b849550505050505092915050565b60008060008060006105628a8a8a60018b8b6108dd565b9250925092506105748383838961080d565b945094505050509550959350505050565b6000856000148061059557508186145b806105a05750846000145b806105aa57508185145b156105b8576000905061061e565b600082806105c257fe5b8687099050600083806105d157fe5b8885806105da57fe5b8a8b09099050600086146106005783806105f057fe5b84806105f857fe5b878a09820890505b6000851461061657838061061057fe5b85820890505b808214925050505b95945050505050565b60008060008061063888888761065b565b9150915061064a8a8a84848a8a610868565b935093505050965096945050505050565b60008084838585038161066a57fe5b0691509150935093915050565b6000806000838061068457fe5b848061068c57fe5b86868061069557fe5b898b090885806106a157fe5b86806106a957fe5b8a8b098a0908905060006106cb82600460018801816106c457fe5b04876106df565b905081819350935050509550959350505050565b6000808414156106f25760009050610806565b60008314156107045760019050610806565b600082141561077b576040517f08c379a000000000000000000000000000000000000000000000000000000000815260040180806020018281038252600f8152602001807f4d6f64756c7573206973207a65726f000000000000000000000000000000000081525060200191505060405180910390fd5b60006001905060007f800000000000000000000000000000000000000000000000000000000000000090505b600081111561080057838186161515870a85848509099150836002820486161515870a85848509099150836004820486161515870a85848509099150836008820486161515870a858485090991506010810490506107a7565b81925050505b9392505050565b600080600061081c8585610451565b90506000848061082857fe5b82830990506000858061083757fe5b828a0990506000868061084657fe5b878061084e57fe5b8486098a0990508181955095505050505094509492505050565b600080600080905060008090506000809050888b14156108a1576108908b8b60018a8a610a71565b8093508194508295505050506108bf565b6108b28b8b60018c8c60018c610c3b565b8093508194508295505050505b6108cb8383838961080d565b94509450505050965096945050505050565b6000806000808990506108ee611176565b89816000600381106108fc57fe5b602002018181525050888160016003811061091357fe5b602002018181525050878160026003811061092a57fe5b6020020181815250506000809050600080905060006001905060008e141561095f578282829750975097505050505050610a65565b5b60008514610a5657600060018616146109c2576109b58383838760006003811061098657fe5b60200201518860016003811061099857fe5b6020020151896002600381106109aa57fe5b60200201518f610c3b565b8093508194508295505050505b600285816109cc57fe5b049450610a0f846000600381106109df57fe5b6020020151856001600381106109f157fe5b602002015186600260038110610a0357fe5b60200201518d8d610a71565b86600060038110610a1c57fe5b6020020187600160038110610a2d57fe5b6020020188600260038110610a3e57fe5b60200201838152508381525083815250505050610960565b82828297509750975050505050505b96509650969350505050565b600080600080861415610a8c57878787925092509250610c30565b610a94611176565b8480610a9c57fe5b898a0981600060038110610aac57fe5b6020020181815250508480610abd57fe5b88890981600160038110610acd57fe5b6020020181815250508480610ade57fe5b87880981600260038110610aee57fe5b60200201818152505060008580610b0157fe5b8680610b0957fe5b83600160038110610b1657fe5b60200201518c09600409905060008680610b2c57fe5b8780610b3457fe5b8880610b3c57fe5b85600260038110610b4957fe5b602002015186600260038110610b5b57fe5b6020020151098a098880610b6b57fe5b85600060038110610b7857fe5b602002015160030908905060008780610b8d57fe5b8880610b9557fe5b84850889038980610ba257fe5b84850908905060008880610bb257fe5b8980610bba57fe5b8a80610bc257fe5b87600160038110610bcf57fe5b602002015188600160038110610be157fe5b6020020151096008098a038a80610bf457fe5b8b80610bfc57fe5b858d038808860908905060008980610c1057fe5b8a80610c1857fe5b8d8f0960020990508282829850985098505050505050505b955095509592505050565b6000806000808a148015610c4f5750600089145b15610c6257868686925092509250611169565b600087148015610c725750600086145b15610c8557898989925092509250611169565b610c8d611198565b8480610c9557fe5b898a0981600060048110610ca557fe5b6020020181815250508480610cb657fe5b81600060048110610cc357fe5b60200201518a0981600160048110610cd757fe5b6020020181815250508480610ce857fe5b86870981600260048110610cf857fe5b6020020181815250508480610d0957fe5b81600260048110610d1657fe5b6020020151870981600360048110610d2a57fe5b60200201818152505060405180608001604052808680610d4657fe5b83600260048110610d5357fe5b60200201518e0981526020018680610d6757fe5b83600360048110610d7457fe5b60200201518d0981526020018680610d8857fe5b83600060048110610d9557fe5b60200201518b0981526020018680610da957fe5b83600160048110610db657fe5b60200201518a09815250905080600260048110610dcf57fe5b602002015181600060048110610de157fe5b60200201511415610ef15780600360048110610df957fe5b602002015181600160048110610e0b57fe5b602002015114610e83576040517f08c379a000000000000000000000000000000000000000000000000000000000815260040180806020018281038252600a8152602001807f57726f6e6720646174610000000000000000000000000000000000000000000081525060200191505060405180910390fd5b6040517f08c379a00000000000000000000000000000000000000000000000000000000081526004018080602001828103825260128152602001807f55736520646f75626c6520696e7374656164000000000000000000000000000081525060200191505060405180910390fd5b610ef9611198565b8580610f0157fe5b82600060048110610f0e57fe5b6020020151870383600260048110610f2257fe5b60200201510881600060048110610f3557fe5b6020020181815250508580610f4657fe5b82600160048110610f5357fe5b6020020151870383600360048110610f6757fe5b60200201510881600160048110610f7a57fe5b6020020181815250508580610f8b57fe5b81600060048110610f9857fe5b602002015182600060048110610faa57fe5b60200201510981600260048110610fbd57fe5b6020020181815250508580610fce57fe5b81600060048110610fdb57fe5b602002015182600260048110610fed57fe5b6020020151098160036004811061100057fe5b6020020181815250506000868061101357fe5b8260036004811061102057fe5b60200201518803888061102f57fe5b8460016004811061103c57fe5b60200201518560016004811061104e57fe5b602002015109089050868061105f57fe5b878061106757fe5b888061106f57fe5b8460026004811061107c57fe5b60200201518660006004811061108e57fe5b602002015109600209880382089050600087806110a757fe5b88806110af57fe5b838a038a806110ba57fe5b866002600481106110c757fe5b6020020151886000600481106110d957fe5b60200201510908846001600481106110ed57fe5b602002015109905087806110fd57fe5b888061110557fe5b8460036004811061111257fe5b60200201518660016004811061112457fe5b6020020151098903820890506000888061113a57fe5b898061114257fe5b8b8f098560006004811061115257fe5b602002015109905082828297509750975050505050505b9750975097945050505050565b6040518060600160405280600390602082028038833980820191505090505090565b604051806080016040528060049060208202803883398082019150509050509056fea165627a7a72305820823d79a8000a0a93dfdd266ce4c5d484b89fc28c6e688a40f973519f7330acfa0029",
  "source": "pragma solidity >=0.4.0 <0.6.0;\n\n\n/**\n * @title Elliptic Curve Library\n * @dev Library providing arithmetic operations over elliptic curves.\n * @author Witnet Foundation\n */\nlibrary EllipticCurve {\n\n  /// @dev Modular euclidean inverse of a number (mod p).\n  /// @param _x The number\n  /// @param _pp The modulus\n  /// @return q such that x*q = 1 (mod _pp)\n  function invMod(uint256 _x, uint256 _pp) public pure returns (uint256) {\n    if (_x == 0 || _x == _pp || _pp == 0) {\n      revert(\"Invalid number\");\n    }\n    uint256 q = 0;\n    uint256 newT = 1;\n    uint256 r = _pp;\n    uint256 newR = _x;\n    uint256 t;\n    while (newR != 0) {\n      t = r / newR;\n      (q, newT) = (newT, addmod(q, (_pp - mulmod(t, newT, _pp)), _pp));\n      (r, newR) = (newR, r - t * newR );\n    }\n\n    return q;\n  }\n\n  /// @dev Modular exponentiation, b^e % _pp.\n  /// Source: https://github.com/androlo/standard-contracts/blob/master/contracts/src/crypto/ECCMath.sol\n  /// @param _base base\n  /// @param _exp exponent\n  /// @param _pp modulus\n  /// @return r such that r = b**e (mod _pp)\n  function expMod(uint256 _base, uint256 _exp, uint256 _pp) public pure returns (uint256) {\n    if (_base == 0)\n      return 0;\n    if (_exp == 0)\n      return 1;\n    if (_pp == 0)\n      revert(\"Modulus is zero\");\n    uint256 r = 1;\n    uint256 bit = 2 ** 255;\n\n    assembly {\n      for { } gt(bit, 0) { }{\n        r := mulmod(mulmod(r, r, _pp), exp(_base, iszero(iszero(and(_exp, bit)))), _pp)\n        r := mulmod(mulmod(r, r, _pp), exp(_base, iszero(iszero(and(_exp, div(bit, 2))))), _pp)\n        r := mulmod(mulmod(r, r, _pp), exp(_base, iszero(iszero(and(_exp, div(bit, 4))))), _pp)\n        r := mulmod(mulmod(r, r, _pp), exp(_base, iszero(iszero(and(_exp, div(bit, 8))))), _pp)\n        bit := div(bit, 16)\n      }\n    }\n\n    return r;\n  }\n\n  /// @dev Converts a point (x, y, z) expressed in Jacobian coordinates to affine coordinates (x', y', 1).\n  /// @param _x coordinate x\n  /// @param _y coordinate y\n  /// @param _z coordinate z\n  /// @param _pp the modulus\n  /// @return (x', y') affine coordinates\n  function toAffine(\n    uint256 _x,\n    uint256 _y,\n    uint256 _z,\n    uint256 _pp)\n  public pure returns (uint256, uint256)\n  {\n    uint256 zInv = invMod(_z, _pp);\n    uint256 zInv2 = mulmod(zInv, zInv, _pp);\n    uint256 x2 = mulmod(_x, zInv2, _pp);\n    uint256 y2 = mulmod(_y, mulmod(zInv, zInv2, _pp), _pp);\n\n    return (x2, y2);\n  }\n\n  /// @dev Derives the y coordinate from a compressed-format point x.\n  /// @param _prefix parity byte (0x02 even, 0x03 odd)\n  /// @param _x coordinate x\n  /// @param _aa constant of curve\n  /// @param _bb constant of curve\n  /// @param _pp the modulus\n  /// @return y coordinate y\n  function deriveY(\n    uint8 _prefix,\n    uint256 _x,\n    uint256 _aa,\n    uint256 _bb,\n    uint256 _pp)\n  public pure returns (uint256, uint256)\n  {\n    // uint256 beta = mulmod(_x, _x, _pp);\n    // beta = mulmod(beta, _x, _pp);\n    // beta = addmod(beta, 7, _pp);\n\n    // uint256 y = expMod(beta, (_pp + 1) / 4, _pp);\n\n    // // require(beta == mulmod(y, y, P), \"Invalid x for evalCurve\");\n    // return (beta, y);\n    // x^3 + ax + b\n    uint256 beta = addmod(mulmod(_x, mulmod(_x, _x, _pp), _pp), addmod(mulmod(_x, _aa, _pp), _bb, _pp), _pp);\n    uint256 y3 = expMod(beta, (_pp + 1) / 4, _pp);\n    // uint256 cmp = yBit ^ y_ & 1;\n    // uint256 y = (y2 + _prefix) % 2 == 0 ? y2 : _pp - y2;\n\n    return (beta, y3);\n  }\n\n  /// @dev Check whether point (x,y) is on curve defined by a, b, and _pp.\n  /// @param _x coordinate x of P1\n  /// @param _y coordinate y of P1\n  /// @param _aa constant of curve\n  /// @param _bb constant of curve\n  /// @param _pp the modulus\n  /// @return true if x,y in the curve, false else\n  function isOnCurve(\n    uint _x,\n    uint _y,\n    uint _aa,\n    uint _bb,\n    uint _pp)\n  public pure returns (bool)\n  {\n    if (0 == _x || _x == _pp || 0 == _y || _y == _pp) {\n      return false;\n    }\n    // y^2\n    uint lhs = mulmod(_y, _y, _pp);\n    // x^3\n    uint rhs = mulmod(mulmod(_x, _x, _pp), _x, _pp);\n    if (_aa != 0) {\n      // x^3 + a*x\n      rhs = addmod(rhs, mulmod(_x, _aa, _pp), _pp);\n    }\n    if (_bb != 0) {\n      // x^3 + a*x + b\n      rhs = addmod(rhs, _bb, _pp);\n    }\n\n    return lhs == rhs;\n  }\n\n  /// @dev Calculate inverse (x, -y) of point (x, y).\n  /// @param _x coordinate x of P1\n  /// @param _y coordinate y of P1\n  /// @param _pp the modulus\n  /// @return (x, -y)\n  function ecInv(\n    uint256 _x,\n    uint256 _y,\n    uint256 _pp)\n  public pure returns (uint256, uint256)\n  {\n    return (_x, (_pp - _y) % _pp);\n  }\n\n  /// @dev Add two points (x1, y1) and (x2, y2) in affine coordinates.\n  /// @param _x1 coordinate x of P1\n  /// @param _y1 coordinate y of P1\n  /// @param _x2 coordinate x of P2\n  /// @param _y2 coordinate y of P2\n  /// @param _aa constant of the curve\n  /// @param _pp the modulus\n  /// @return (qx, qy) = P1+P2 in affine coordinates\n  function ecAdd(\n    uint256 _x1,\n    uint256 _y1,\n    uint256 _x2,\n    uint256 _y2,\n    uint256 _aa,\n    uint256 _pp)\n    public pure returns(uint256, uint256)\n  {\n    uint x = 0;\n    uint y = 0;\n    uint z = 0;\n    // Double if x1==x2 else add\n    if (_x1==_x2) {\n      (x, y, z) = jacDouble(\n        _x1,\n        _y1,\n        1,\n        _aa,\n        _pp);\n    } else {\n      (x, y, z) = jacAdd(\n        _x1,\n        _y1,\n        1,\n        _x2,\n        _y2,\n        1,\n        _pp);\n    }\n    // Get back to affine\n    return toAffine(\n      x,\n      y,\n      z,\n      _pp);\n  }\n\n  /// @dev Substract two points (x1, y1) and (x2, y2) in affine coordinates.\n  /// @param _x1 coordinate x of P1\n  /// @param _y1 coordinate y of P1\n  /// @param _x2 coordinate x of P2\n  /// @param _y2 coordinate y of P2\n  /// @param _aa constant of the curve\n  /// @param _pp the modulus\n  /// @return (qx, qy) = P1-P2 in affine coordinates\n  function ecSub(\n    uint256 _x1,\n    uint256 _y1,\n    uint256 _x2,\n    uint256 _y2,\n    uint256 _aa,\n    uint256 _pp)\n  public pure returns(uint256, uint256)\n  {\n    // invert square\n    (uint256 x, uint256 y) = ecInv(_x2, _y2, _pp);\n    // P1-square\n    return ecAdd(\n      _x1,\n      _y1,\n      x,\n      y,\n      _aa,\n      _pp);\n  }\n\n  /// @dev Multiply point (x1, y1, z1) times d in affine coordinates.\n  /// @param _k scalar to multiply\n  /// @param _x coordinate x of P1\n  /// @param _y coordinate y of P1\n  /// @param _aa constant of the curve\n  /// @param _pp the modulus\n  /// @return (qx, qy) = d*P in affine coordinates\n  function ecMul(\n    uint256 _k,\n    uint256 _x,\n    uint256 _y,\n    uint256 _aa,\n    uint256 _pp)\n  public pure returns(uint256, uint256)\n  {\n    // Jacobian multiplication\n    (uint256 x1, uint256 y1, uint256 z1) = jacMul(\n      _k,\n      _x,\n      _y,\n      1,\n      _aa,\n      _pp);\n    // Get back to affine\n    return toAffine(\n      x1,\n      y1,\n      z1,\n      _pp);\n  }\n\n  /// @dev Adds two points (x1, y1, z1) and (x2 y2, z2).\n  /// @param _x1 coordinate x of P1\n  /// @param _y1 coordinate y of P1\n  /// @param _z1 coordinate z of P1\n  /// @param _x2 coordinate x of square\n  /// @param _y2 coordinate y of square\n  /// @param _z2 coordinate z of square\n  /// @param _pp the modulus\n  /// @return (qx, qy, qz) P1+square in Jacobian\n  function jacAdd(\n    uint256 _x1,\n    uint256 _y1,\n    uint256 _z1,\n    uint256 _x2,\n    uint256 _y2,\n    uint256 _z2,\n    uint256 _pp)\n  internal pure returns (uint256, uint256, uint256)\n  {\n    if ((_x1==0)&&(_y1==0))\n      return (_x2, _y2, _z2);\n    if ((_x2==0)&&(_y2==0))\n      return (_x1, _y1, _z1);\n    // We follow the equations described in https://pdfs.semanticscholar.org/5c64/29952e08025a9649c2b0ba32518e9a7fb5c2.pdf Section 5\n\n    uint[4] memory zs; // z1^2, z1^3, z2^2, z2^3\n    zs[0] = mulmod(_z1, _z1, _pp);\n    zs[1] = mulmod(_z1, zs[0], _pp);\n    zs[2] = mulmod(_z2, _z2, _pp);\n    zs[3] = mulmod(_z2, zs[2], _pp);\n\n    // u1, s1, u2, s2\n    zs = [\n      mulmod(_x1, zs[2], _pp),\n      mulmod(_y1, zs[3], _pp),\n      mulmod(_x2, zs[0], _pp),\n      mulmod(_y2, zs[1], _pp)\n    ];\n    if (zs[0] == zs[2]) {\n      if (zs[1] != zs[3])\n        revert(\"Wrong data\");\n      else {\n        revert(\"Use double instead\");\n      }\n    }\n    uint[4] memory hr;\n    //h\n    hr[0] = addmod(zs[2], _pp - zs[0], _pp);\n    //r\n    hr[1] = addmod(zs[3], _pp - zs[1], _pp);\n    //h^2\n    hr[2] = mulmod(hr[0], hr[0], _pp);\n    // h^3\n    hr[3] = mulmod(hr[2], hr[0], _pp);\n    // qx = -h^3  -2u1h^2+r^2\n    uint256 qx = addmod(mulmod(hr[1], hr[1], _pp), _pp - hr[3], _pp);\n    qx = addmod(qx, _pp - mulmod(2, mulmod(zs[0], hr[2], _pp), _pp), _pp);\n    // qy = -s1*z1*h^3+r(u1*h^2 -x^3)\n    uint256 qy = mulmod(hr[1], addmod(mulmod(zs[0], hr[2], _pp), _pp - qx, _pp), _pp);\n    qy = addmod(qy, _pp - mulmod(zs[1], hr[3], _pp), _pp);\n    // qz = h*z1*z2\n    uint256 qz = mulmod(hr[0], mulmod(_z1, _z2, _pp), _pp);\n    return(qx, qy, qz);\n  }\n\n  /// @dev Doubles a points (x, y, z).\n  /// @param _x coordinate x of P1\n  /// @param _y coordinate y of P1\n  /// @param _z coordinate z of P1\n  /// @param _pp the modulus\n  /// @param _aa the a scalar in the curve equation\n  /// @return (qx, qy, qz) 2P in Jacobian\n  function jacDouble(\n    uint256 _x,\n    uint256 _y,\n    uint256 _z,\n    uint256 _aa,\n    uint256 _pp)\n  internal pure returns (uint256, uint256, uint256)\n  {\n    if (_z == 0)\n      return (_x, _y, _z);\n    uint256[3] memory square;\n    // We follow the equations described in https://pdfs.semanticscholar.org/5c64/29952e08025a9649c2b0ba32518e9a7fb5c2.pdf Section 5\n    // Note: there is a bug in the paper regarding the m parameter, M=3*(x1^2)+a*(z1^4)\n    square[0] = mulmod(_x, _x, _pp); //x1^2\n    square[1] = mulmod(_y, _y, _pp); //y1^2\n    square[2] = mulmod(_z, _z, _pp); //z1^2\n\n    // s\n    uint s = mulmod(4, mulmod(_x, square[1], _pp), _pp);\n    // m\n    uint m = addmod(mulmod(3, square[0], _pp), mulmod(_aa, mulmod(square[2], square[2], _pp), _pp), _pp);\n    // qx\n    uint256 qx = addmod(mulmod(m, m, _pp), _pp - addmod(s, s, _pp), _pp);\n    // qy = -8*y1^4 + M(S-T)\n    uint256 qy = addmod(mulmod(m, addmod(s, _pp - qx, _pp), _pp), _pp - mulmod(8, mulmod(square[1], square[1], _pp), _pp), _pp);\n    // qz = 2*y1*z1\n    uint256 qz = mulmod(2, mulmod(_y, _z, _pp), _pp);\n\n    return (qx, qy, qz);\n  }\n\n  /// @dev Multiply point (x, y, z) times d.\n  /// @param _d scalar to multiply\n  /// @param _x coordinate x of P1\n  /// @param _y coordinate y of P1\n  /// @param _z coordinate z of P1\n  /// @param _aa constant of curve\n  /// @param _pp the modulus\n  /// @return (qx, qy, qz) d*P1 in Jacobian\n  function jacMul(\n    uint256 _d,\n    uint256 _x,\n    uint256 _y,\n    uint256 _z,\n    uint256 _aa,\n    uint256 _pp)\n  internal pure returns (uint256, uint256, uint256)\n  {\n    uint256 remaining = _d;\n    uint256[3] memory point;\n    point[0] = _x;\n    point[1] = _y;\n    point[2] = _z;\n    uint256 qx = 0;\n    uint256 qy = 0;\n    uint256 qz = 1;\n\n    if (_d == 0) {\n      return (qx, qy, qz);\n    }\n    // Double and add algorithm\n    while (remaining != 0) {\n      if ((remaining & 1) != 0) {\n        (qx, qy, qz) = jacAdd(\n          qx,\n          qy,\n          qz,\n          point[0],\n          point[1],\n          point[2],\n          _pp);\n      }\n      remaining = remaining / 2;\n      (point[0], point[1], point[2]) = jacDouble(\n        point[0],\n        point[1],\n        point[2],\n        _aa,\n        _pp);\n    }\n    return (qx, qy, qz);\n  }\n}",
  "sourcePath": "/Users/suchetaaa/Desktop/Academics @IITB/Semester VII/Cryptocurrency/E-Voting/contracts/EllipticCurve.sol",
  "compiler": {
    "name": "solc",
    "version": "0.5.8+commit.23d335f2.Emscripten.clang"
  },
  "schemaVersion": "3.0.16",
  "updatedAt": "2019-10-16T06:39:15.543Z",
  "devdoc": {
    "author": "Witnet Foundation",
    "details": "Library providing arithmetic operations over elliptic curves.",
    "methods": {
      "deriveY(uint8,uint256,uint256,uint256,uint256)": {
        "details": "Derives the y coordinate from a compressed-format point x.",
        "params": {
          "_aa": "constant of curve",
          "_bb": "constant of curve",
          "_pp": "the modulus",
          "_prefix": "parity byte (0x02 even, 0x03 odd)",
          "_x": "coordinate x"
        },
        "return": "y coordinate y"
      },
      "ecAdd(uint256,uint256,uint256,uint256,uint256,uint256)": {
        "details": "Add two points (x1, y1) and (x2, y2) in affine coordinates.",
        "params": {
          "_aa": "constant of the curve",
          "_pp": "the modulus",
          "_x1": "coordinate x of P1",
          "_x2": "coordinate x of P2",
          "_y1": "coordinate y of P1",
          "_y2": "coordinate y of P2"
        },
        "return": "(qx, qy) = P1+P2 in affine coordinates"
      },
      "ecInv(uint256,uint256,uint256)": {
        "details": "Calculate inverse (x, -y) of point (x, y).",
        "params": {
          "_pp": "the modulus",
          "_x": "coordinate x of P1",
          "_y": "coordinate y of P1"
        },
        "return": "(x, -y)"
      },
      "ecMul(uint256,uint256,uint256,uint256,uint256)": {
        "details": "Multiply point (x1, y1, z1) times d in affine coordinates.",
        "params": {
          "_aa": "constant of the curve",
          "_k": "scalar to multiply",
          "_pp": "the modulus",
          "_x": "coordinate x of P1",
          "_y": "coordinate y of P1"
        },
        "return": "(qx, qy) = d*P in affine coordinates"
      },
      "ecSub(uint256,uint256,uint256,uint256,uint256,uint256)": {
        "details": "Substract two points (x1, y1) and (x2, y2) in affine coordinates.",
        "params": {
          "_aa": "constant of the curve",
          "_pp": "the modulus",
          "_x1": "coordinate x of P1",
          "_x2": "coordinate x of P2",
          "_y1": "coordinate y of P1",
          "_y2": "coordinate y of P2"
        },
        "return": "(qx, qy) = P1-P2 in affine coordinates"
      },
      "expMod(uint256,uint256,uint256)": {
        "details": "Modular exponentiation, b^e % _pp. Source: https://github.com/androlo/standard-contracts/blob/master/contracts/src/crypto/ECCMath.sol",
        "params": {
          "_base": "base",
          "_exp": "exponent",
          "_pp": "modulus"
        },
        "return": "r such that r = b**e (mod _pp)"
      },
      "invMod(uint256,uint256)": {
        "details": "Modular euclidean inverse of a number (mod p).",
        "params": {
          "_pp": "The modulus",
          "_x": "The number"
        },
        "return": "q such that x*q = 1 (mod _pp)"
      },
      "isOnCurve(uint256,uint256,uint256,uint256,uint256)": {
        "details": "Check whether point (x,y) is on curve defined by a, b, and _pp.",
        "params": {
          "_aa": "constant of curve",
          "_bb": "constant of curve",
          "_pp": "the modulus",
          "_x": "coordinate x of P1",
          "_y": "coordinate y of P1"
        },
        "return": "true if x,y in the curve, false else"
      },
      "toAffine(uint256,uint256,uint256,uint256)": {
        "details": "Converts a point (x, y, z) expressed in Jacobian coordinates to affine coordinates (x', y', 1).",
        "params": {
          "_pp": "the modulus",
          "_x": "coordinate x",
          "_y": "coordinate y",
          "_z": "coordinate z"
        },
        "return": "(x', y') affine coordinates"
      }
    },
    "title": "Elliptic Curve Library"
  },
  "userdoc": {
    "methods": {}
  }
}