{
  "contractName": "EVoting",
  "abi": [
    {
      "inputs": [
        {
          "name": "_pubkeys",
          "type": "uint256[2][]"
        }
      ],
      "payable": false,
      "stateMutability": "nonpayable",
      "type": "constructor"
    },
    {
      "constant": false,
      "inputs": [
        {
          "name": "_common",
          "type": "address"
        }
      ],
      "name": "setCommon",
      "outputs": [],
      "payable": false,
      "stateMutability": "nonpayable",
      "type": "function"
    },
    {
      "constant": false,
      "inputs": [
        {
          "name": "message",
          "type": "uint256"
        },
        {
          "name": "c0",
          "type": "uint256"
        },
        {
          "name": "keyImage",
          "type": "uint256[2]"
        },
        {
          "name": "s",
          "type": "uint256[]"
        }
      ],
      "name": "vote",
      "outputs": [
        {
          "name": "",
          "type": "bool"
        }
      ],
      "payable": false,
      "stateMutability": "nonpayable",
      "type": "function"
    },
    {
      "constant": true,
      "inputs": [],
      "name": "winningProposal",
      "outputs": [
        {
          "name": "_winningProposal",
          "type": "uint8"
        },
        {
          "name": "winningVoteCount",
          "type": "uint256"
        }
      ],
      "payable": false,
      "stateMutability": "view",
      "type": "function"
    },
    {
      "constant": false,
      "inputs": [
        {
          "name": "x",
          "type": "uint256"
        }
      ],
      "name": "toBytes",
      "outputs": [
        {
          "name": "b",
          "type": "bytes"
        }
      ],
      "payable": false,
      "stateMutability": "nonpayable",
      "type": "function"
    }
  ],
  "bytecode": "0x60806040523480156200001157600080fd5b50604051620012ff380380620012ff83398101806040526200003791908101906200039d565b336000806101000a81548173ffffffffffffffffffffffffffffffffffffffff021916908373ffffffffffffffffffffffffffffffffffffffff16021790555060018060008060009054906101000a900473ffffffffffffffffffffffffffffffffffffffff1673ffffffffffffffffffffffffffffffffffffffff1673ffffffffffffffffffffffffffffffffffffffff168152602001908152602001600020600001819055506003600281620000f0919062000111565b5080600390805190602001906200010992919062000140565b505062000480565b8154818355818111156200013b578183600052602060002091820191016200013a9190620001a5565b5b505050565b82805482825590600052602060002090600202810192821562000192579160200282015b82811115620001915782518290600262000180929190620001cf565b509160200191906002019062000164565b5b509050620001a1919062000214565b5090565b620001cc91905b80821115620001c85760008082016000905550600101620001ac565b5090565b90565b826002810192821562000201579160200282015b8281111562000200578251825591602001919060010190620001e3565b5b50905062000210919062000245565b5090565b6200024291905b808211156200023e57600081816200023491906200026d565b506002016200021b565b5090565b90565b6200026a91905b80821115620002665760008160009055506001016200024c565b5090565b90565b506000815560010160009055565b600082601f8301126200028d57600080fd5b8151620002a46200029e8262000410565b620003e2565b91508181835260208401935060208101905083856040840282011115620002ca57600080fd5b60005b83811015620002fe5781620002e3888262000308565b845260208401935060408301925050600181019050620002cd565b5050505092915050565b600082601f8301126200031a57600080fd5b6002620003316200032b8262000439565b620003e2565b915081838560208402820111156200034857600080fd5b60005b838110156200037c578162000361888262000386565b8452602084019350602083019250506001810190506200034b565b5050505092915050565b600081519050620003978162000466565b92915050565b600060208284031215620003b057600080fd5b600082015167ffffffffffffffff811115620003cb57600080fd5b620003d9848285016200027b565b91505092915050565b6000604051905081810181811067ffffffffffffffff821117156200040657600080fd5b8060405250919050565b600067ffffffffffffffff8211156200042857600080fd5b602082029050602081019050919050565b600067ffffffffffffffff8211156200045157600080fd5b602082029050919050565b6000819050919050565b62000471816200045c565b81146200047d57600080fd5b50565b610e6f80620004906000396000f3fe608060405234801561001057600080fd5b506004361061004c5760003560e01c8063609ff1bd14610051578063775a8f5e14610070578063aefef480146100a0578063f63cf942146100d0575b600080fd5b6100596100ec565b604051610067929190610bb3565b60405180910390f35b61008a6004803603610085919081019061078d565b610166565b6040516100979190610b09565b60405180910390f35b6100ba60048036036100b591908101906107b6565b6101aa565b6040516100c79190610aee565b60405180910390f35b6100ea60048036036100e5919081019061073b565b6102f9565b005b600080600080905060008090505b6002805490508160ff161015610160578160028260ff168154811061011b57fe5b906000526020600020016000015411156101535760028160ff168154811061013f57fe5b906000526020600020016000015491508093505b80806001019150506100fa565b50509091565b606060206040519080825280601f01601f19166020018201604052801561019c5781602001600182028038833980820191505090505b509050816020820152919050565b600060606101b786610166565b9050600560009054906101000a900473ffffffffffffffffffffffffffffffffffffffff1673ffffffffffffffffffffffffffffffffffffffff163373ffffffffffffffffffffffffffffffffffffffff161480156102a757506102a6818686866003805480602002602001604051908101604052809291908181526020016000905b8282101561029d5783829060005260206000209060020201600280602002604051908101604052809291908260028015610289576020028201915b815481526020019060010190808311610275575b50505050508152602001906001019061023a565b505050506103cc565b5b156102eb57600260016102b983610593565b03815481106102c457fe5b906000526020600020016000016000815480929190600101919050555060019150506102f1565b60009150505b949350505050565b6000809054906101000a900473ffffffffffffffffffffffffffffffffffffffff1673ffffffffffffffffffffffffffffffffffffffff163373ffffffffffffffffffffffffffffffffffffffff1614610388576040517f08c379a000000000000000000000000000000000000000000000000000000000815260040161037f90610b93565b60405180910390fd5b80600560006101000a81548173ffffffffffffffffffffffffffffffffffffffff021916908373ffffffffffffffffffffffffffffffffffffffff16021790555050565b60008073__LSAG__________________________________63fe46a2b288888888886040518663ffffffff1660e01b815260040161040e959493929190610b2b565b60206040518083038186803b15801561042657600080fd5b505af415801561043a573d6000803e3d6000fd5b505050506040513d601f19601f8201168201806040525061045e9190810190610764565b90508091505061058a565b6004805490508110156104ff576004818154811061048357fe5b906000526020600020906002020160000154866000600281106104a257fe5b60200201511480156104e25750600481815481106104bc57fe5b906000526020600020906002020160010154866001600281106104db57fe5b6020020151145b156104f25760009250505061058a565b8080600101915050610469565b506105086105eb565b8560006002811061051557fe5b60200201518160000181815250508560016002811061053057fe5b60200201518160200181815250506004819080600181540180825580915050906001820390600052602060002090600202016000909192909190915060008201518160000155602082015181600101555050506001925050505b95945050505050565b60008060008090505b83518110156105e1576001810184510360080260020a8482815181106105be57fe5b602001015160f81c60f81b60f81c60ff160282019150808060010191505061059c565b5080915050919050565b604051806040016040528060008152602001600081525090565b60008135905061061481610df0565b92915050565b600082601f83011261062b57600080fd5b600261063e61063982610c09565b610bdc565b9150818385602084028201111561065457600080fd5b60005b83811015610684578161066a8882610726565b845260208401935060208301925050600181019050610657565b5050505092915050565b600082601f83011261069f57600080fd5b81356106b26106ad82610c2b565b610bdc565b915081818352602084019350602081019050838560208402820111156106d757600080fd5b60005b8381101561070757816106ed8882610726565b8452602084019350602083019250506001810190506106da565b5050505092915050565b60008151905061072081610e07565b92915050565b60008135905061073581610e1e565b92915050565b60006020828403121561074d57600080fd5b600061075b84828501610605565b91505092915050565b60006020828403121561077657600080fd5b600061078484828501610711565b91505092915050565b60006020828403121561079f57600080fd5b60006107ad84828501610726565b91505092915050565b60008060008060a085870312156107cc57600080fd5b60006107da87828801610726565b94505060206107eb87828801610726565b93505060406107fc8782880161061a565b925050608085013567ffffffffffffffff81111561081957600080fd5b6108258782880161068e565b91505092959194509250565b600061083d8383610916565b60408301905092915050565b60006108558383610ad0565b60208301905092915050565b600061086c82610c81565b6108768185610cec565b935061088183610c53565b8060005b838110156108b25781516108998882610831565b97506108a483610cb8565b925050600181019050610885565b5085935050505092915050565b6108c881610c97565b6108d28184610cfd565b92506108dd82610c6a565b8060005b8381101561090e5781516108f58782610849565b965061090083610cd2565b9250506001810190506108e1565b505050505050565b61091f81610c8c565b6109298184610d08565b925061093482610c60565b8060005b8381101561096557815161094c8782610849565b965061095783610cc5565b925050600181019050610938565b505050505050565b600061097882610ca2565b6109828185610d13565b935061098d83610c74565b8060005b838110156109be5781516109a58882610849565b97506109b083610cdf565b925050600181019050610991565b5085935050505092915050565b6109d481610d69565b82525050565b60006109e582610cad565b6109ef8185610d24565b93506109ff818560208601610dac565b610a0881610ddf565b840191505092915050565b6000610a1e82610cad565b610a288185610d35565b9350610a38818560208601610dac565b610a4181610ddf565b840191505092915050565b6000610a59603a83610d46565b91507f73656e646572206973206e6f7420746865206368616972706572736f6e2e206360008301527f616e74207365742074686520636f6d6d6f6e20616464726573730000000000006020830152604082019050919050565b610abb81610d95565b82525050565b610aca81610d95565b82525050565b610ad981610d95565b82525050565b610ae881610d9f565b82525050565b6000602082019050610b0360008301846109cb565b92915050565b60006020820190508181036000830152610b2381846109da565b905092915050565b600060c0820190508181036000830152610b458188610a13565b9050610b546020830187610ac1565b610b6160408301866108bf565b8181036080830152610b73818561096d565b905081810360a0830152610b878184610861565b90509695505050505050565b60006020820190508181036000830152610bac81610a4c565b9050919050565b6000604082019050610bc86000830185610adf565b610bd56020830184610ab2565b9392505050565b6000604051905081810181811067ffffffffffffffff82111715610bff57600080fd5b8060405250919050565b600067ffffffffffffffff821115610c2057600080fd5b602082029050919050565b600067ffffffffffffffff821115610c4257600080fd5b602082029050602081019050919050565b6000602082019050919050565b6000819050919050565b6000819050919050565b6000602082019050919050565b600081519050919050565b600060029050919050565b600060029050919050565b600081519050919050565b600081519050919050565b6000602082019050919050565b6000602082019050919050565b6000602082019050919050565b6000602082019050919050565b600082825260208201905092915050565b600081905092915050565b600081905092915050565b600082825260208201905092915050565b600082825260208201905092915050565b600082825260208201905092915050565b600082825260208201905092915050565b6000610d6282610d75565b9050919050565b60008115159050919050565b600073ffffffffffffffffffffffffffffffffffffffff82169050919050565b6000819050919050565b600060ff82169050919050565b60005b83811015610dca578082015181840152602081019050610daf565b83811115610dd9576000848401525b50505050565b6000601f19601f8301169050919050565b610df981610d57565b8114610e0457600080fd5b50565b610e1081610d69565b8114610e1b57600080fd5b50565b610e2781610d95565b8114610e3257600080fd5b5056fea265627a7a723058205f4ede6b826f098013fb8a7f7cab93872bccb67b5055314162afd8ac551e69306c6578706572696d656e74616cf50037",
  "source": "pragma solidity >=0.4.0 <0.6.0;\npragma experimental ABIEncoderV2;\nimport \"./LSAG.sol\";\n\ncontract EVoting {\n\n    struct Voter {\n        uint weight;\n        bool voted;\n        uint8 vote;\n        address delegate;\n    }\n\n    struct Proposal {\n        uint voteCount;\n    }\n    \n    struct keyImages {\n        uint256 x;\n        uint256 y;\n    }\n\n    address chairperson;\n    mapping(address => Voter) voters;\n    Proposal[] proposals;\n    uint256[2][] pub_keys;\n    keyImages[] I_array;\n    address common;\n\n    constructor(uint256[2][] memory _pubkeys) public {\n        chairperson = msg.sender;\n        voters[chairperson].weight = 1;\n        proposals.length = 3; \n        pub_keys = _pubkeys;\n    }\n    \n    function setCommon(address _common) public {\n        require(msg.sender == chairperson, \"sender is not the chairperson. cant set the common address\");\n        common = _common;\n    }\n\n    function bytesToUint(bytes memory b) internal returns (uint256){\n        uint256 number;\n        for(uint i=0;i<b.length;i++){\n            number = number + uint8(b[i])*(2**(8*(b.length-(i+1))));\n        }\n        return number;\n    }\n    \n    function LSAG_verify(bytes memory message, uint256 c0, uint256[2] memory keyImage, uint256[] memory s, uint256[2][] memory publicKeys) internal returns (bool) {\n        bool status = LSAG.verify(message, c0, keyImage, s, publicKeys);\n        return status;\n        \n        if (!status) return false;\n        for(uint i=0; i<I_array.length; i++) {\n            if (keyImage[0] == I_array[i].x && keyImage[1] == I_array[i].y) return false;\n        }\n        keyImages memory new_keyimage;\n        new_keyimage.x = keyImage[0];\n        new_keyimage.y = keyImage[1];\n        I_array.push(new_keyimage);\n        return true;\n\n    }\n    \n    /// Give a single vote to proposal $(toProposal).\n    function vote(uint message, uint256 c0, uint256[2] memory keyImage, uint256[] memory s) public returns (bool){\n        bytes memory message = toBytes(message);\n        // require(msg.sender == common, \"sender is not the common address\");\n\n        // require(LSAG_verify(message, c0, keyImage, s, pub_keys), \"lsag verification didn't work\"); \n\n        if ((msg.sender == common) && LSAG_verify(message, c0, keyImage, s, pub_keys)) {\n            proposals[bytesToUint(message)-1].voteCount++;\n            return true;\n        }\n\n        return false;\n        \n        // return proposals[bytesToUint(message)-1].voteCount;\n    }\n\n    function winningProposal() public view returns (uint8 _winningProposal, uint256 winningVoteCount) {\n        uint256 winningVoteCount = 0;\n        for (uint8 prop = 0; prop < proposals.length; prop++)\n            if (proposals[prop].voteCount > winningVoteCount) {\n                winningVoteCount = proposals[prop].voteCount;\n                _winningProposal = prop;\n            }\n    }\n\n    // function to convert uint to bytes\n    function toBytes(uint256 x) public returns (bytes memory b) {\n    b = new bytes(32);\n    assembly { mstore(add(b, 32), x) }\n}\n\n}\n",
  "sourcePath": "/Users/suchetaaa/Desktop/Academics @IITB/Semester VII/Cryptocurrency/E-Voting/contracts/e_voting.sol",
  "compiler": {
    "name": "solc",
    "version": "0.5.8+commit.23d335f2.Emscripten.clang"
  },
  "schemaVersion": "3.0.16",
  "updatedAt": "2019-10-16T06:39:15.509Z",
  "devdoc": {
    "methods": {}
  },
  "userdoc": {
    "methods": {
      "vote(uint256,uint256,uint256[2],uint256[])": {
        "notice": "Give a single vote to proposal $(toProposal)."
      }
    }
  }
}