{
  "contractName": "LSAG_original",
  "abi": [
    {
      "constant": true,
      "inputs": [
        {
          "name": "_x",
          "type": "uint256"
        }
      ],
      "name": "intToPoint",
      "outputs": [
        {
          "name": "",
          "type": "uint256[2]"
        }
      ],
      "payable": false,
      "stateMutability": "view",
      "type": "function"
    },
    {
      "constant": true,
      "inputs": [
        {
          "name": "b",
          "type": "bytes"
        }
      ],
      "name": "H1",
      "outputs": [
        {
          "name": "",
          "type": "uint256"
        }
      ],
      "payable": false,
      "stateMutability": "pure",
      "type": "function"
    },
    {
      "constant": true,
      "inputs": [
        {
          "name": "b",
          "type": "bytes"
        }
      ],
      "name": "H2",
      "outputs": [
        {
          "name": "",
          "type": "uint256[2]"
        }
      ],
      "payable": false,
      "stateMutability": "view",
      "type": "function"
    },
    {
      "constant": true,
      "inputs": [
        {
          "name": "pubKey",
          "type": "uint256[2]"
        },
        {
          "name": "c",
          "type": "uint256"
        },
        {
          "name": "s",
          "type": "uint256"
        }
      ],
      "name": "ringCalcZ1",
      "outputs": [
        {
          "name": "",
          "type": "uint256[2]"
        }
      ],
      "payable": false,
      "stateMutability": "view",
      "type": "function"
    },
    {
      "constant": true,
      "inputs": [
        {
          "name": "keyImage",
          "type": "uint256[2]"
        },
        {
          "name": "h",
          "type": "uint256[2]"
        },
        {
          "name": "s",
          "type": "uint256"
        },
        {
          "name": "c",
          "type": "uint256"
        }
      ],
      "name": "ringCalcZ2",
      "outputs": [
        {
          "name": "",
          "type": "uint256[2]"
        }
      ],
      "payable": false,
      "stateMutability": "view",
      "type": "function"
    },
    {
      "constant": true,
      "inputs": [
        {
          "name": "message",
          "type": "bytes"
        },
        {
          "name": "c0",
          "type": "uint256"
        },
        {
          "name": "keyImage",
          "type": "uint256[2]"
        },
        {
          "name": "s",
          "type": "uint256[]"
        },
        {
          "name": "publicKeys",
          "type": "uint256[2][]"
        }
      ],
      "name": "verify",
      "outputs": [
        {
          "name": "",
          "type": "bool"
        }
      ],
      "payable": false,
      "stateMutability": "view",
      "type": "function"
    }
  ],
  "bytecode": "0x61144e610026600b82828239805160001a60731461001957fe5b30600052607381538281f3fe730000000000000000000000000000000000000000301460806040526004361061006c5760003560e01c80632872d29a1461007157806336c91c051461012657806385d88a431461021c5780639728de9814610313578063d6edde19146103e2578063fe46a2b21461044c575b600080fd5b6100e86004803603608081101561008757600080fd5b8101908080604001906002806020026040519081016040528092919082600260200280828437600081840152601f19601f820116905080830192505050505050919291929080359060200190929190803590602001909291905050506106ce565b6040518082600260200280838360005b838110156101135780820151818401526020810190506100f8565b5050505090500191505060405180910390f35b6101de600480360360c081101561013c57600080fd5b8101908080604001906002806020026040519081016040528092919082600260200280828437600081840152601f19601f820116905080830192505050505050919291929080604001906002806020026040519081016040528092919082600260200280828437600081840152601f19601f82011690508083019250505050505091929192908035906020019092919080359060200190929190505050610912565b6040518082600260200280838360005b838110156102095780820151818401526020810190506101ee565b5050505090500191505060405180910390f35b6102d56004803603602081101561023257600080fd5b810190808035906020019064010000000081111561024f57600080fd5b82018360208201111561026157600080fd5b8035906020019184600183028401116401000000008311171561028357600080fd5b91908080601f016020809104026020016040519081016040528093929190818152602001838380828437600081840152601f19601f820116905080830192505050505050509192919290505050610b87565b6040518082600260200280838360005b838110156103005780820151818401526020810190506102e5565b5050505090500191505060405180910390f35b6103cc6004803603602081101561032957600080fd5b810190808035906020019064010000000081111561034657600080fd5b82018360208201111561035857600080fd5b8035906020019184600183028401116401000000008311171561037a57600080fd5b91908080601f016020809104026020016040519081016040528093929190818152602001838380828437600081840152601f19601f820116905080830192505050505050509192919290505050610ba7565b6040518082815260200191505060405180910390f35b61040e600480360360208110156103f857600080fd5b8101908080359060200190929190505050610c44565b6040518082600260200280838360005b8381101561043957808201518184015260208101905061041e565b5050505090500191505060405180910390f35b6106b4600480360360c081101561046257600080fd5b810190808035906020019064010000000081111561047f57600080fd5b82018360208201111561049157600080fd5b803590602001918460018302840111640100000000831117156104b357600080fd5b91908080601f016020809104026020016040519081016040528093929190818152602001838380828437600081840152601f19601f8201169050808301925050505050505091929192908035906020019092919080604001906002806020026040519081016040528092919082600260200280828437600081840152601f19601f82011690508083019250505050505091929192908035906020019064010000000081111561056157600080fd5b82018360208201111561057357600080fd5b8035906020019184602083028401116401000000008311171561059557600080fd5b919080806020026020016040519081016040528093929190818152602001838360200280828437600081840152601f19601f820116905080830192505050505050509192919290803590602001906401000000008111156105f557600080fd5b82018360208201111561060757600080fd5b8035906020019184604083028401116401000000008311171561062957600080fd5b9190808060200260200160405190810160405280939291908181526020016000905b828210156106a2578484839050604002016002806020026040519081016040528092919082600260200280828437600081840152601f19601f8201169050808301925050505050508152602001906001019061064b565b50505050509192919290505050610e50565b604051808215151515815260200191505060405180910390f35b6106d6611400565b73__AltBn128______________________________63a867d0ca73__AltBn128______________________________6345c37318856040518263ffffffff1660e01b815260040180828152602001915050604080518083038186803b15801561073e57600080fd5b505af4158015610752573d6000803e3d6000fd5b505050506040513d601f19601f82011682018060405250604081101561077757600080fd5b810190809190505073__AltBn128______________________________6371de372488886040518363ffffffff1660e01b81526004018083600260200280838360005b838110156107d55780820151818401526020810190506107ba565b5050505090500182815260200192505050604080518083038186803b1580156107fd57600080fd5b505af4158015610811573d6000803e3d6000fd5b505050506040513d601f19601f82011682018060405250604081101561083657600080fd5b81019080919050506040518363ffffffff1660e01b81526004018083600260200280838360005b8381101561087857808201518184015260208101905061085d565b5050505090500182600260200280838360005b838110156108a657808201518184015260208101905061088b565b5050505090500192505050604080518083038186803b1580156108c857600080fd5b505af41580156108dc573d6000803e3d6000fd5b505050506040513d601f19601f82011682018060405250604081101561090157600080fd5b810190809190505090509392505050565b61091a611400565b73__AltBn128______________________________63a867d0ca73__AltBn128______________________________6371de372487876040518363ffffffff1660e01b81526004018083600260200280838360005b8381101561098a57808201518184015260208101905061096f565b5050505090500182815260200192505050604080518083038186803b1580156109b257600080fd5b505af41580156109c6573d6000803e3d6000fd5b505050506040513d601f19601f8201168201806040525060408110156109eb57600080fd5b810190809190505073__AltBn128______________________________6371de372489876040518363ffffffff1660e01b81526004018083600260200280838360005b83811015610a49578082015181840152602081019050610a2e565b5050505090500182815260200192505050604080518083038186803b158015610a7157600080fd5b505af4158015610a85573d6000803e3d6000fd5b505050506040513d601f19601f820116820180604052506040811015610aaa57600080fd5b81019080919050506040518363ffffffff1660e01b81526004018083600260200280838360005b83811015610aec578082015181840152602081019050610ad1565b5050505090500182600260200280838360005b83811015610b1a578082015181840152602081019050610aff565b5050505090500192505050604080518083038186803b158015610b3c57600080fd5b505af4158015610b50573d6000803e3d6000fd5b505050506040513d601f19601f820116820180604052506040811015610b7557600080fd5b81019080919050509050949350505050565b610b8f611400565b610ba0610b9b83610ba7565b610c44565b9050919050565b600073__AltBn128______________________________634f06f279838051906020012060001c6040518263ffffffff1660e01b81526004018082815260200191505060206040518083038186803b158015610c0257600080fd5b505af4158015610c16573d6000803e3d6000fd5b505050506040513d6020811015610c2c57600080fd5b81019080805190602001909291905050509050919050565b610c4c611400565b60008290506000805b600115610e475773__AltBn128______________________________63c690219b846040518263ffffffff1660e01b815260040180828152602001915050604080518083038186803b158015610caa57600080fd5b505af4158015610cbe573d6000803e3d6000fd5b505050506040513d6040811015610cd457600080fd5b810190808051906020019092919080519060200190929190505050809350819250505073__AltBn128______________________________6381dd69fe82846040518363ffffffff1660e01b8152600401808381526020018281526020019250505060206040518083038186803b158015610d4e57600080fd5b505af4158015610d62573d6000803e3d6000fd5b505050506040513d6020811015610d7857600080fd5b810190808051906020019092919050505015610dad576040518060400160405280848152602001838152509350505050610e4b565b73__AltBn128______________________________63e76ee2428460016040518363ffffffff1660e01b8152600401808381526020018281526020019250505060206040518083038186803b158015610e0557600080fd5b505af4158015610e19573d6000803e3d6000fd5b505050506040513d6020811015610e2f57600080fd5b81019080805190602001909291905050509250610c55565b5050505b919050565b6000600282511015610eca576040517f08c379a00000000000000000000000000000000000000000000000000000000081526004018080602001828103825260188152602001807f5369676e61747572652073697a6520746f6f20736d616c6c000000000000000081525060200191505060405180910390fd5b8251825114610f41576040517f08c379a000000000000000000000000000000000000000000000000000000000815260040180806020018281038252601d8152602001807f5369676e61747572652073697a657320646f206e6f74206d617463682100000081525060200191505060405180910390fd5b600085905060008090506060604051806020016040528060008152509050600091505b845182101561102a5780858381518110610f7a57fe5b60200260200101516040516020018083805190602001908083835b60208310610fb85780518252602082019150602081019050602083039250610f95565b6001836020036101000a03801982511681845116808217855250505050505090500182600260200280838360005b83811015611001578082015181840152602081019050610fe6565b505050509050019250505060405160208183030381529060405290508180600101925050610f64565b611032611400565b61103b82610b87565b9050611045611400565b61104d611400565b600094505b87518510156112975761108c88868151811061106a57fe5b6020026020010151878b888151811061107f57fe5b60200260200101516106ce565b91506110ad8a848b888151811061109f57fe5b602002602001015189610912565b90506000600114611126576040517f08c379a00000000000000000000000000000000000000000000000000000000081526004018080602001828103825260118152602001807f576f726b696e672074696c6c206865726500000000000000000000000000000081525060200191505060405180910390fd5b6001885103851461128a57611287848b8e85856040516020018086805190602001908083835b6020831061116f578051825260208201915060208101905060208303925061114c565b6001836020036101000a03801982511681845116808217855250505050505090500185600260200280838360005b838110156111b857808201518184015260208101905061119d565b5050505090500184805190602001908083835b602083106111ee57805182526020820191506020810190506020830392506111cb565b6001836020036101000a03801982511681845116808217855250505050505090500183600260200280838360005b8381101561123757808201518184015260208101905061121c565b5050505090500182600260200280838360005b8381101561126557808201518184015260208101905061124a565b5050505090500195505050505050604051602081830303815290604052610ba7565b95505b8480600101955050611052565b6113ed848b8e85856040516020018086805190602001908083835b602083106112d557805182526020820191506020810190506020830392506112b2565b6001836020036101000a03801982511681845116808217855250505050505090500185600260200280838360005b8381101561131e578082015181840152602081019050611303565b5050505090500184805190602001908083835b602083106113545780518252602082019150602081019050602083039250611331565b6001836020036101000a03801982511681845116808217855250505050505090500183600260200280838360005b8381101561139d578082015181840152602081019050611382565b5050505090500182600260200280838360005b838110156113cb5780820151818401526020810190506113b0565b5050505090500195505050505050604051602081830303815290604052610ba7565b8b14965050505050505095945050505050565b604051806040016040528060029060208202803883398082019150509050509056fea165627a7a72305820b2335f3f29da35454f1f3f5623cb28893504d95bc275c137a7441ef7d84e15550029",
  "source": "pragma solidity >=0.4.0 <0.6.0;\n\nimport \"./AltBn128.sol\";\n\n/*\nLinkable Spontaneous Anonymous Groups\n\nhttps://eprint.iacr.org/2004/027.pdf\n*/\n\nlibrary LSAG_original {\n    // abi.encodePacked is the \"concat\" or \"serialization\"\n    // of all supplied arguments into one long bytes value\n    // i.e. abi.encodePacked :: [a] -> bytes\n\n    /**\n    * Converts an integer to an elliptic curve point\n    */\n    function intToPoint(uint256 _x) public view\n        returns (uint256[2] memory)\n    {\n        uint256 x = _x;\n        uint256 y;\n        uint256 beta;\n\n        while (true) {\n            (beta, y) = AltBn128.evalCurve(x);\n\n            if (AltBn128.onCurveBeta(beta, y)) {\n                return [x, y];\n            }\n\n            x = AltBn128.addmodn(x, 1);\n        }\n    }\n\n    /**\n    * Returns an integer representation of the hash\n    * of the input\n    */\n    function H1(bytes memory b) public pure\n        returns (uint256)\n    {\n        return AltBn128.modn(uint256(keccak256(b)));\n    }\n\n    /**\n    * Returns elliptic curve point of the integer representation\n    * of the hash of the input\n    */\n    function H2(bytes memory b) public view\n        returns (uint256[2] memory)\n    {\n        return intToPoint(H1(b));\n    }\n\n    /**\n    * Helper function to calculate Z1\n    * Avoids stack too deep problem\n    */\n    function ringCalcZ1(\n        uint256[2] memory pubKey,\n        uint256 c,\n        uint256 s\n    ) public view\n        returns (uint256[2] memory)\n    {\n        return AltBn128.ecAdd(\n            AltBn128.ecMulG(s),\n            AltBn128.ecMul(pubKey, c)\n        );\n    }\n\n    /**\n    * Helper function to calculate Z2\n    * Avoids stack too deep problem\n    */\n    function ringCalcZ2(\n        uint256[2] memory keyImage,\n        uint256[2] memory h,\n        uint256 s,\n        uint256 c\n    ) public view\n        returns (uint256[2] memory)\n    {\n        return AltBn128.ecAdd(\n            AltBn128.ecMul(h, s),\n            AltBn128.ecMul(keyImage, c)\n        );\n    }\n\n\n    /**\n    * Verifies the ring signature\n    * Section 4.2 of the paper https://eprint.iacr.org/2004/027.pdf\n    */\n    function verify(\n        bytes memory message,\n        uint256 c0,\n        uint256[2] memory keyImage,\n        uint256[] memory s,\n        uint256[2][] memory publicKeys\n    ) public view\n        returns (bool)\n    {\n        require(publicKeys.length >= 2, \"Signature size too small\");\n        require(publicKeys.length == s.length, \"Signature sizes do not match!\");\n\n        uint256 c = c0;\n        uint256 i = 0;\n\n        // Step 1\n        // Extract out public key bytes\n        bytes memory hBytes = \"\";\n\n        for (i = 0; i < publicKeys.length; i++) {\n            hBytes = abi.encodePacked(\n                hBytes,\n                publicKeys[i]\n            );\n        }\n\n        uint256[2] memory h = H2(hBytes);\n\n        // Step 2\n        uint256[2] memory z_1;\n        uint256[2] memory z_2;\n\n\n        for (i = 0; i < publicKeys.length; i++) {\n            z_1 = ringCalcZ1(publicKeys[i], c, s[i]);\n            z_2 = ringCalcZ2(keyImage, h, s[i], c);\n            require(1==0, \"Working till here\");\n\n            if (i != publicKeys.length - 1) {\n                c = H1(\n                    abi.encodePacked(\n                        hBytes,\n                        keyImage,\n                        message,\n                        z_1,\n                        z_2\n                    )\n                );\n            }\n        }\n\n\n        return c0 == H1(\n            abi.encodePacked(\n                hBytes,\n                keyImage,\n                message,\n                z_1,\n                z_2\n            )\n        );\n    }\n}",
  "sourcePath": "/Users/suchetaaa/Desktop/Academics @IITB/Semester VII/Cryptocurrency/E-Voting/contracts/LSAG_original.sol",
  "compiler": {
    "name": "solc",
    "version": "0.5.8+commit.23d335f2.Emscripten.clang"
  },
  "schemaVersion": "3.0.16",
  "updatedAt": "2019-10-16T06:39:15.575Z",
  "devdoc": {
    "methods": {}
  },
  "userdoc": {
    "methods": {
      "H1(bytes)": {
        "notice": "Returns an integer representation of the hash of the input"
      },
      "H2(bytes)": {
        "notice": "Returns elliptic curve point of the integer representation of the hash of the input"
      },
      "intToPoint(uint256)": {
        "notice": "Converts an integer to an elliptic curve point"
      },
      "ringCalcZ1(uint256[2],uint256,uint256)": {
        "notice": "Helper function to calculate Z1 Avoids stack too deep problem"
      },
      "ringCalcZ2(uint256[2],uint256[2],uint256,uint256)": {
        "notice": "Helper function to calculate Z2 Avoids stack too deep problem"
      },
      "verify(bytes,uint256,uint256[2],uint256[],uint256[2][])": {
        "notice": "Verifies the ring signature Section 4.2 of the paper https://eprint.iacr.org/2004/027.pdf"
      }
    }
  }
}