{
  "contractName": "LSAG",
  "abi": [
    {
      "constant": true,
      "inputs": [
        {
          "name": "_x",
          "type": "uint256"
        }
      ],
      "name": "intToPoint",
      "outputs": [
        {
          "name": "",
          "type": "uint256[2]"
        }
      ],
      "payable": false,
      "stateMutability": "view",
      "type": "function"
    },
    {
      "constant": true,
      "inputs": [
        {
          "name": "b",
          "type": "bytes"
        }
      ],
      "name": "H1",
      "outputs": [
        {
          "name": "",
          "type": "uint256"
        }
      ],
      "payable": false,
      "stateMutability": "pure",
      "type": "function"
    },
    {
      "constant": true,
      "inputs": [
        {
          "name": "b",
          "type": "bytes"
        }
      ],
      "name": "H2",
      "outputs": [
        {
          "name": "",
          "type": "uint256[2]"
        }
      ],
      "payable": false,
      "stateMutability": "view",
      "type": "function"
    },
    {
      "constant": true,
      "inputs": [
        {
          "name": "pubKey",
          "type": "uint256[2]"
        },
        {
          "name": "c",
          "type": "uint256"
        },
        {
          "name": "s",
          "type": "uint256"
        }
      ],
      "name": "ringCalcZ1",
      "outputs": [
        {
          "name": "",
          "type": "uint256[2]"
        }
      ],
      "payable": false,
      "stateMutability": "view",
      "type": "function"
    },
    {
      "constant": true,
      "inputs": [
        {
          "name": "keyImage",
          "type": "uint256[2]"
        },
        {
          "name": "h",
          "type": "uint256[2]"
        },
        {
          "name": "s",
          "type": "uint256"
        },
        {
          "name": "c",
          "type": "uint256"
        }
      ],
      "name": "ringCalcZ2",
      "outputs": [
        {
          "name": "",
          "type": "uint256[2]"
        }
      ],
      "payable": false,
      "stateMutability": "view",
      "type": "function"
    },
    {
      "constant": true,
      "inputs": [
        {
          "name": "message",
          "type": "bytes"
        },
        {
          "name": "c0",
          "type": "uint256"
        },
        {
          "name": "keyImage",
          "type": "uint256[2]"
        },
        {
          "name": "s",
          "type": "uint256[]"
        },
        {
          "name": "publicKeys",
          "type": "uint256[2][]"
        }
      ],
      "name": "verify",
      "outputs": [
        {
          "name": "",
          "type": "bool"
        }
      ],
      "payable": false,
      "stateMutability": "view",
      "type": "function"
    }
  ],
  "bytecode": "0x611679610026600b82828239805160001a60731461001957fe5b30600052607381538281f3fe730000000000000000000000000000000000000000301460806040526004361061006c5760003560e01c80632872d29a1461007157806336c91c051461012657806385d88a431461021c5780639728de9814610313578063d6edde19146103e2578063fe46a2b21461044c575b600080fd5b6100e86004803603608081101561008757600080fd5b8101908080604001906002806020026040519081016040528092919082600260200280828437600081840152601f19601f820116905080830192505050505050919291929080359060200190929190803590602001909291905050506106ce565b6040518082600260200280838360005b838110156101135780820151818401526020810190506100f8565b5050505090500191505060405180910390f35b6101de600480360360c081101561013c57600080fd5b8101908080604001906002806020026040519081016040528092919082600260200280828437600081840152601f19601f820116905080830192505050505050919291929080604001906002806020026040519081016040528092919082600260200280828437600081840152601f19601f820116905080830192505050505050919291929080359060200190929190803590602001909291905050506109e3565b6040518082600260200280838360005b838110156102095780820151818401526020810190506101ee565b5050505090500191505060405180910390f35b6102d56004803603602081101561023257600080fd5b810190808035906020019064010000000081111561024f57600080fd5b82018360208201111561026157600080fd5b8035906020019184600183028401116401000000008311171561028357600080fd5b91908080601f016020809104026020016040519081016040528093929190818152602001838380828437600081840152601f19601f820116905080830192505050505050509192919290505050610d29565b6040518082600260200280838360005b838110156103005780820151818401526020810190506102e5565b5050505090500191505060405180910390f35b6103cc6004803603602081101561032957600080fd5b810190808035906020019064010000000081111561034657600080fd5b82018360208201111561035857600080fd5b8035906020019184600183028401116401000000008311171561037a57600080fd5b91908080601f016020809104026020016040519081016040528093929190818152602001838380828437600081840152601f19601f820116905080830192505050505050509192919290505050610d49565b6040518082815260200191505060405180910390f35b61040e600480360360208110156103f857600080fd5b8101908080359060200190929190505050610ea1565b6040518082600260200280838360005b8381101561043957808201518184015260208101905061041e565b5050505090500191505060405180910390f35b6106b4600480360360c081101561046257600080fd5b810190808035906020019064010000000081111561047f57600080fd5b82018360208201111561049157600080fd5b803590602001918460018302840111640100000000831117156104b357600080fd5b91908080601f016020809104026020016040519081016040528093929190818152602001838380828437600081840152601f19601f8201169050808301925050505050505091929192908035906020019092919080604001906002806020026040519081016040528092919082600260200280828437600081840152601f19601f82011690508083019250505050505091929192908035906020019064010000000081111561056157600080fd5b82018360208201111561057357600080fd5b8035906020019184602083028401116401000000008311171561059557600080fd5b919080806020026020016040519081016040528093929190818152602001838360200280828437600081840152601f19601f820116905080830192505050505050509192919290803590602001906401000000008111156105f557600080fd5b82018360208201111561060757600080fd5b8035906020019184604083028401116401000000008311171561062957600080fd5b9190808060200260200160405190810160405280939291908181526020016000905b828210156106a2578484839050604002016002806020026040519081016040528092919082600260200280828437600081840152601f19601f8201169050808301925050505050508152602001906001019061064b565b505050505091929192905050506110f2565b604051808215151515815260200191505060405180910390f35b6106d661162b565b6106de61162b565b6106e661162b565b6106ee61162b565b60008073__secp256k1_____________________________63c0181914886040518263ffffffff1660e01b815260040180828152602001915050604080518083038186803b15801561073f57600080fd5b505af4158015610753573d6000803e3d6000fd5b505050506040513d604081101561076957600080fd5b8101908080519060200190929190805190602001909291905050508092508193505050818460006002811061079a57fe5b60200201818152505080846001600281106107b157fe5b60200201818152505073__secp256k1_____________________________63f75f20608a8a6040518363ffffffff1660e01b81526004018083600260200280838360005b838110156108105780820151818401526020810190506107f5565b5050505090500182815260200192505050604080518083038186803b15801561083857600080fd5b505af415801561084c573d6000803e3d6000fd5b505050506040513d604081101561086257600080fd5b8101908080519060200190929190805190602001909291905050508092508193505050818360006002811061089357fe5b60200201818152505080836001600281106108aa57fe5b60200201818152505073__secp256k1_____________________________63cf86462085856040518363ffffffff1660e01b81526004018083600260200280838360005b838110156109095780820151818401526020810190506108ee565b5050505090500182600260200280838360005b8381101561093757808201518184015260208101905061091c565b5050505090500192505050604080518083038186803b15801561095957600080fd5b505af415801561096d573d6000803e3d6000fd5b505050506040513d604081101561098357600080fd5b810190808051906020019092919080519060200190929190505050809250819350505081856000600281106109b457fe5b60200201818152505080856001600281106109cb57fe5b60200201818152505084955050505050509392505050565b6109eb61162b565b6109f361162b565b6109fb61162b565b610a0361162b565b60008073__secp256k1_____________________________63f75f20608a8a6040518363ffffffff1660e01b81526004018083600260200280838360005b83811015610a5c578082015181840152602081019050610a41565b5050505090500182815260200192505050604080518083038186803b158015610a8457600080fd5b505af4158015610a98573d6000803e3d6000fd5b505050506040513d6040811015610aae57600080fd5b81019080805190602001909291908051906020019092919050505080925081935050508184600060028110610adf57fe5b6020020181815250508084600160028110610af657fe5b60200201818152505073__secp256k1_____________________________63f75f20608b896040518363ffffffff1660e01b81526004018083600260200280838360005b83811015610b55578082015181840152602081019050610b3a565b5050505090500182815260200192505050604080518083038186803b158015610b7d57600080fd5b505af4158015610b91573d6000803e3d6000fd5b505050506040513d6040811015610ba757600080fd5b81019080805190602001909291908051906020019092919050505080925081935050508183600060028110610bd857fe5b6020020181815250508083600160028110610bef57fe5b60200201818152505073__secp256k1_____________________________63cf86462085856040518363ffffffff1660e01b81526004018083600260200280838360005b83811015610c4e578082015181840152602081019050610c33565b5050505090500182600260200280838360005b83811015610c7c578082015181840152602081019050610c61565b5050505090500192505050604080518083038186803b158015610c9e57600080fd5b505af4158015610cb2573d6000803e3d6000fd5b505050506040513d6040811015610cc857600080fd5b81019080805190602001909291908051906020019092919050505080925081935050508185600060028110610cf957fe5b6020020181815250508085600160028110610d1057fe5b6020020181815250508495505050505050949350505050565b610d3161162b565b610d42610d3d83610d49565b610ea1565b9050919050565b6000807f19b7064d1839c7126b80df658f549865e2fe259f4830f270d55545782e27135b905073__secp256k1_____________________________634f06f2796002856040518082805190602001908083835b60208310610dbf5780518252602082019150602081019050602083039250610d9c565b6001836020036101000a038019825116818451168082178552505050505050905001915050602060405180830381855afa158015610e01573d6000803e3d6000fd5b5050506040513d6020811015610e1657600080fd5b810190808051906020019092919050505060001c6040518263ffffffff1660e01b81526004018082815260200191505060206040518083038186803b158015610e5e57600080fd5b505af4158015610e72573d6000803e3d6000fd5b505050506040513d6020811015610e8857600080fd5b8101908080519060200190929190505050915050919050565b610ea961162b565b60008290506000806000809050600060028781610ec257fe5b061415610ece57600290505b600160028781610eda57fe5b061415610ee657600390505b5b6001156110e85773__secp256k1_____________________________63e455019682866040518363ffffffff1660e01b8152600401808360ff1660ff16815260200182815260200192505050604080518083038186803b158015610f4a57600080fd5b505af4158015610f5e573d6000803e3d6000fd5b505050506040513d6040811015610f7457600080fd5b810190808051906020019092919080519060200190929190505050809450819350505073__secp256k1_____________________________63669d944885856040518363ffffffff1660e01b8152600401808381526020018281526020019250505060206040518083038186803b158015610fee57600080fd5b505af4158015611002573d6000803e3d6000fd5b505050506040513d602081101561101857600080fd5b81019080805190602001909291905050501561104e576040518060400160405280858152602001848152509450505050506110ed565b73__secp256k1_____________________________63e76ee2428560016040518363ffffffff1660e01b8152600401808381526020018281526020019250505060206040518083038186803b1580156110a657600080fd5b505af41580156110ba573d6000803e3d6000fd5b505050506040513d60208110156110d057600080fd5b81019080805190602001909291905050509350610ee7565b505050505b919050565b600060028251101561116c576040517f08c379a00000000000000000000000000000000000000000000000000000000081526004018080602001828103825260188152602001807f5369676e61747572652073697a6520746f6f20736d616c6c000000000000000081525060200191505060405180910390fd5b82518251146111e3576040517f08c379a000000000000000000000000000000000000000000000000000000000815260040180806020018281038252601d8152602001807f5369676e61747572652073697a657320646f206e6f74206d617463682100000081525060200191505060405180910390fd5b600085905060008090506060604051806020016040528060008152509050600091505b84518210156112cc578085838151811061121c57fe5b60200260200101516040516020018083805190602001908083835b6020831061125a5780518252602082019150602081019050602083039250611237565b6001836020036101000a03801982511681845116808217855250505050505090500182600260200280838360005b838110156112a3578082015181840152602081019050611288565b505050509050019250505060405160208183030381529060405290508180600101925050611206565b6112d461162b565b6112dd82610d29565b90506112e761162b565b6112ef61162b565b600094505b87518510156114c25761132e88868151811061130c57fe5b6020026020010151878b888151811061132157fe5b60200260200101516106ce565b915061134f8a848b888151811061134157fe5b6020026020010151896109e3565b9050600188510385146114b5576114b2848b8e85856040516020018086805190602001908083835b6020831061139a5780518252602082019150602081019050602083039250611377565b6001836020036101000a03801982511681845116808217855250505050505090500185600260200280838360005b838110156113e35780820151818401526020810190506113c8565b5050505090500184805190602001908083835b6020831061141957805182526020820191506020810190506020830392506113f6565b6001836020036101000a03801982511681845116808217855250505050505090500183600260200280838360005b83811015611462578082015181840152602081019050611447565b5050505090500182600260200280838360005b83811015611490578082015181840152602081019050611475565b5050505090500195505050505050604051602081830303815290604052610d49565b95505b84806001019550506112f4565b611618848b8e85856040516020018086805190602001908083835b6020831061150057805182526020820191506020810190506020830392506114dd565b6001836020036101000a03801982511681845116808217855250505050505090500185600260200280838360005b8381101561154957808201518184015260208101905061152e565b5050505090500184805190602001908083835b6020831061157f578051825260208201915060208101905060208303925061155c565b6001836020036101000a03801982511681845116808217855250505050505090500183600260200280838360005b838110156115c85780820151818401526020810190506115ad565b5050505090500182600260200280838360005b838110156115f65780820151818401526020810190506115db565b5050505090500195505050505050604051602081830303815290604052610d49565b8b14965050505050505095945050505050565b604051806040016040528060029060208202803883398082019150509050509056fea165627a7a72305820ede87282a96bdb657636052ca8a8fc28a07fb94b3552cb33fbd25cfcadd1ed8f0029",
  "source": "pragma solidity >=0.4.0 <0.6.0;\n\n// import \"./AltBn128.sol\";\nimport \"./secp256k1.sol\";\n\n/*\nLinkable Spontaneous Anonymous Groups\n\nhttps://eprint.iacr.org/2004/027.pdf\n*/\n\nlibrary LSAG {\n    // abi.encodePacked is the \"concat\" or \"serialization\"\n    // of all supplied arguments into one long bytes value\n    // i.e. abi.encodePacked :: [a] -> bytes\n\n    /**\n    * Converts an integer to an elliptic curve point\n    */\n    function intToPoint(uint256 _x) public view\n        returns (uint256[2] memory)\n    {\n        uint256 x = _x;\n        uint256 y;\n        uint256 beta;\n        uint8 prefix = 0x0;\n\n        if (_x%2 == 0) {\n            prefix = 0x02;\n        }\n        if (_x%2 == 1) {\n            prefix = 0x03;\n        }\n\n        while (true) {\n\n            (beta, y) = secp256k1.map_curve(prefix, x);\n\n            if (secp256k1.onCurve(x, y)) {\n                return [x, y];\n            }\n\n            x = secp256k1.addmodn(x, 1);\n        }\n    }\n\n    /**\n    * Returns an integer representation of the hash\n    * of the input\n    */\n    function H1(bytes memory b) public pure\n        returns (uint256)\n    {   \n        uint256 a = 11631197716381341491910650601086533899062258680921704624436296724004857123675;\n        return secp256k1.modn(uint256(sha256(b)));\n    }\n\n    /**\n    * Returns elliptic curve point of the integer representation\n    * of the hash of the input\n    */\n    function H2(bytes memory b) public view\n        returns (uint256[2] memory)\n    {\n\n        return intToPoint(H1(b));\n    }\n\n    /**\n    * Helper function to calculate Z1\n    * Avoids stack too deep problem\n    */\n    function ringCalcZ1(\n        uint256[2] memory pubKey,\n        uint256 c,\n        uint256 s\n    ) public view\n        returns (uint256[2] memory)\n    {\n\n        // return AltBn128.ecAdd(\n        //     AltBn128.ecMulG(s),\n        //     AltBn128.ecMul(pubKey, c)\n        // );\n\n        uint256[2] memory output;\n        uint256[2] memory p1;\n        uint256[2] memory p2;\n        uint256 x;\n        uint256 y; \n\n        (x, y) = secp256k1.ecMultG(s);\n\n        p1[0] = x;\n        p1[1] = y;\n\n        (x, y) = secp256k1.ecMult(pubKey, c);\n\n        p2[0] = x;\n        p2[1] = y;\n\n        (x, y) = secp256k1.ecAddd(\n            p1,\n            p2\n        );\n\n        output[0] = x;\n        output[1] = y;\n        return output;\n    }\n\n    /**\n    * Helper function to calculate Z2\n    * Avoids stack too deep problem\n    */\n    function ringCalcZ2(\n        uint256[2] memory keyImage,\n        uint256[2] memory h,\n        uint256 s,\n        uint256 c\n    ) public view\n        returns (uint256[2] memory)\n    {\n        // return AltBn128.ecAdd(\n        //     AltBn128.ecMul(h, s),\n        //     AltBn128.ecMul(keyImage, c)\n        // );\n\n        uint256[2] memory output;\n        uint256[2] memory p1;\n        uint256[2] memory p2;\n        uint256 x;\n        uint256 y; \n\n        (x, y) = secp256k1.ecMult(h, s);\n\n        p1[0] = x;\n        p1[1] = y;\n\n        (x, y) = secp256k1.ecMult(keyImage, c);\n\n        p2[0] = x;\n        p2[1] = y;\n\n        (x, y) = secp256k1.ecAddd(\n            p1,\n            p2\n        );\n\n        output[0] = x;\n        output[1] = y;\n        return output;\n    }\n\n\n    /**\n    * Verifies the ring signature\n    * Section 4.2 of the paper https://eprint.iacr.org/2004/027.pdf\n    */\n    function verify(\n        bytes memory message,\n        uint256 c0,\n        uint256[2] memory keyImage,\n        uint256[] memory s,\n        uint256[2][] memory publicKeys\n    ) public view\n        returns (bool)\n    {\n        \n        \n        require(publicKeys.length >= 2, \"Signature size too small\");\n        require(publicKeys.length == s.length, \"Signature sizes do not match!\");\n\n\n        uint256 c = c0;\n        uint256 i = 0;\n\n        // Step 1\n        // Extract out public key bytes\n        bytes memory hBytes = \"\";\n\n        for (i = 0; i < publicKeys.length; i++) {\n            hBytes = abi.encodePacked(\n                hBytes,\n                publicKeys[i]\n            );\n        }\n\n\n        uint256[2] memory h = H2(hBytes);\n\n        // require(h[0] ==106245785169166674832827933205895298349539914377793708839139737261608903456172, \"H[0] is not matching\");\n        // require(h[1] == 38130597350437976482118320406716909458312114499366885177464997577442444961143, \"H[1] is not matching\");\n\n\n        // Step 2\n        uint256[2] memory z_1;\n        uint256[2] memory z_2;\n\n\n        for (i = 0; i < publicKeys.length; i++) {\n\n\n            z_1 = ringCalcZ1(publicKeys[i], c, s[i]);\n            z_2 = ringCalcZ2(keyImage, h, s[i], c);\n            // require(z_1[0] == 104603062327150847596075863885237206448711583172763894617559229948636949816387, \"z_1[0] me problem hai\");\n            // require(z_1[1] == 3877022914943913174973231854694363839599317059260525512126388493689905288930, \"z_1[1] me problem hai\");\n            // require(z_2[0] == 25157251625505657634097849792771000312472027419867594537390547422728421981871, \"z_2[0] me problem hai\");\n            // require(z_2[1] == 69948776311331987906694682752320754045742553606829709747780937321352532856962, \"z_2[1] me problem hai\");\n\n\n\n            if (i != publicKeys.length - 1) {\n                c = H1(\n                    abi.encodePacked(\n                        hBytes,\n                        keyImage,\n                        message,\n                        z_1,\n                        z_2\n                    )\n                );\n\n            }\n        }\n\n        return c0 == H1(\n            abi.encodePacked(\n                hBytes,\n                keyImage,\n                message,\n                z_1,\n                z_2\n            )\n        );\n\n    }\n}",
  "sourcePath": "/Users/suchetaaa/Desktop/Academics @IITB/Semester VII/Cryptocurrency/E-Voting/contracts/LSAG.sol",
  "compiler": {
    "name": "solc",
    "version": "0.5.8+commit.23d335f2.Emscripten.clang"
  },
  "schemaVersion": "3.0.16",
  "updatedAt": "2019-10-16T06:39:15.524Z",
  "devdoc": {
    "methods": {}
  },
  "userdoc": {
    "methods": {
      "H1(bytes)": {
        "notice": "Returns an integer representation of the hash of the input"
      },
      "H2(bytes)": {
        "notice": "Returns elliptic curve point of the integer representation of the hash of the input"
      },
      "intToPoint(uint256)": {
        "notice": "Converts an integer to an elliptic curve point"
      },
      "ringCalcZ1(uint256[2],uint256,uint256)": {
        "notice": "Helper function to calculate Z1 Avoids stack too deep problem"
      },
      "ringCalcZ2(uint256[2],uint256[2],uint256,uint256)": {
        "notice": "Helper function to calculate Z2 Avoids stack too deep problem"
      },
      "verify(bytes,uint256,uint256[2],uint256[],uint256[2][])": {
        "notice": "Verifies the ring signature Section 4.2 of the paper https://eprint.iacr.org/2004/027.pdf"
      }
    }
  }
}