{
  "contractName": "secp256k1",
  "abi": [
    {
      "constant": true,
      "inputs": [
        {
          "name": "privKey",
          "type": "uint256"
        }
      ],
      "name": "derivePubKey",
      "outputs": [
        {
          "name": "qx",
          "type": "uint256"
        },
        {
          "name": "qy",
          "type": "uint256"
        }
      ],
      "payable": false,
      "stateMutability": "pure",
      "type": "function"
    },
    {
      "constant": true,
      "inputs": [
        {
          "name": "s",
          "type": "uint256"
        }
      ],
      "name": "ecMultG",
      "outputs": [
        {
          "name": "qx",
          "type": "uint256"
        },
        {
          "name": "qy",
          "type": "uint256"
        }
      ],
      "payable": false,
      "stateMutability": "pure",
      "type": "function"
    },
    {
      "constant": true,
      "inputs": [
        {
          "name": "keyImage",
          "type": "uint256[2]"
        },
        {
          "name": "s",
          "type": "uint256"
        }
      ],
      "name": "ecMult",
      "outputs": [
        {
          "name": "qx",
          "type": "uint256"
        },
        {
          "name": "qy",
          "type": "uint256"
        }
      ],
      "payable": false,
      "stateMutability": "pure",
      "type": "function"
    },
    {
      "constant": true,
      "inputs": [
        {
          "name": "x",
          "type": "uint256[2]"
        },
        {
          "name": "y",
          "type": "uint256[2]"
        }
      ],
      "name": "ecAddd",
      "outputs": [
        {
          "name": "qx",
          "type": "uint256"
        },
        {
          "name": "qy",
          "type": "uint256"
        }
      ],
      "payable": false,
      "stateMutability": "pure",
      "type": "function"
    },
    {
      "constant": true,
      "inputs": [
        {
          "name": "prefix",
          "type": "uint8"
        },
        {
          "name": "x",
          "type": "uint256"
        }
      ],
      "name": "map_curve",
      "outputs": [
        {
          "name": "beta",
          "type": "uint256"
        },
        {
          "name": "y3",
          "type": "uint256"
        }
      ],
      "payable": false,
      "stateMutability": "pure",
      "type": "function"
    },
    {
      "constant": true,
      "inputs": [
        {
          "name": "beta",
          "type": "uint256"
        },
        {
          "name": "y",
          "type": "uint256"
        }
      ],
      "name": "onCurveBeta",
      "outputs": [
        {
          "name": "",
          "type": "bool"
        }
      ],
      "payable": false,
      "stateMutability": "pure",
      "type": "function"
    },
    {
      "constant": true,
      "inputs": [
        {
          "name": "x",
          "type": "uint256"
        },
        {
          "name": "n",
          "type": "uint256"
        }
      ],
      "name": "addmodn",
      "outputs": [
        {
          "name": "",
          "type": "uint256"
        }
      ],
      "payable": false,
      "stateMutability": "pure",
      "type": "function"
    },
    {
      "constant": true,
      "inputs": [
        {
          "name": "x",
          "type": "uint256"
        }
      ],
      "name": "modn",
      "outputs": [
        {
          "name": "",
          "type": "uint256"
        }
      ],
      "payable": false,
      "stateMutability": "pure",
      "type": "function"
    },
    {
      "constant": true,
      "inputs": [
        {
          "name": "x",
          "type": "uint256"
        },
        {
          "name": "y",
          "type": "uint256"
        }
      ],
      "name": "onCurve",
      "outputs": [
        {
          "name": "b",
          "type": "bool"
        }
      ],
      "payable": false,
      "stateMutability": "pure",
      "type": "function"
    }
  ],
  "bytecode": "0x610b13610026600b82828239805160001a60731461001957fe5b30600052607381538281f3fe730000000000000000000000000000000000000000301460806040526004361061009d5760003560e01c8063c018191411610070578063c0181914146101cd578063cf86462014610216578063e4550196146102d7578063e76ee2421461032d578063f75f2060146103795761009d565b80634f06f279146100a2578063669d9448146100e457806381dd69fe14610134578063bc9e2bcf14610184575b600080fd5b6100ce600480360360208110156100b857600080fd5b8101908080359060200190929190505050610403565b6040518082815260200191505060405180910390f35b61011a600480360360408110156100fa57600080fd5b810190808035906020019092919080359060200190929190505050610436565b604051808215151515815260200191505060405180910390f35b61016a6004803603604081101561014a57600080fd5b81019080803590602001909291908035906020019092919050505061050c565b604051808215151515815260200191505060405180910390f35b6101b06004803603602081101561019a57600080fd5b8101908080359060200190929190505050610543565b604051808381526020018281526020019250505060405180910390f35b6101f9600480360360208110156101e357600080fd5b8101908080359060200190929190505050610667565b604051808381526020018281526020019250505060405180910390f35b6102ba6004803603608081101561022c57600080fd5b8101908080604001906002806020026040519081016040528092919082600260200280828437600081840152601f19601f820116905080830192505050505050919291929080604001906002806020026040519081016040528092919082600260200280828437600081840152601f19601f820116905080830192505050505050919291929050505061078b565b604051808381526020018281526020019250505060405180910390f35b610310600480360360408110156102ed57600080fd5b81019080803560ff169060200190929190803590602001909291905050506108bd565b604051808381526020018281526020019250505060405180910390f35b6103636004803603604081101561034357600080fd5b8101908080359060200190929190803590602001909291905050506109aa565b6040518082815260200191505060405180910390f35b6103e66004803603606081101561038f57600080fd5b8101908080604001906002806020026040519081016040528092919082600260200280828437600081840152601f19601f8201169050808301925050505050509192919290803590602001909291905050506109df565b604051808381526020018281526020019250505060405180910390f35b60007ffffffffffffffffffffffffffffffffebaaedce6af48a03bbfd25e8cd0364141828161042e57fe5b069050919050565b600073__EllipticCurve_________________________6337103a678484600060077ffffffffffffffffffffffffffffffffffffffffffffffffffffffffefffffc2f6040518663ffffffff1660e01b8152600401808681526020018581526020018481526020018381526020018281526020019550505050505060206040518083038186803b1580156104c957600080fd5b505af41580156104dd573d6000803e3d6000fd5b505050506040513d60208110156104f357600080fd5b8101908080519060200190929190505050905092915050565b60007ffffffffffffffffffffffffffffffffffffffffffffffffffffffffefffffc2f8061053657fe5b8283098314905092915050565b60008073__EllipticCurve_________________________63364b62d5847f79be667ef9dcbbac55a06295ce870b07029bfcdb2dce28d959f2815b16f817987f483ada7726a3c4655da4fbfc0e1108a8fd17b448a68554199c47d08ffb10d4b860007ffffffffffffffffffffffffffffffffffffffffffffffffffffffffefffffc2f6040518663ffffffff1660e01b81526004018086815260200185815260200184815260200183815260200182815260200195505050505050604080518083038186803b15801561061557600080fd5b505af4158015610629573d6000803e3d6000fd5b505050506040513d604081101561063f57600080fd5b8101908080519060200190929190805190602001909291905050508092508193505050915091565b60008073__EllipticCurve_________________________63364b62d5847f79be667ef9dcbbac55a06295ce870b07029bfcdb2dce28d959f2815b16f817987f483ada7726a3c4655da4fbfc0e1108a8fd17b448a68554199c47d08ffb10d4b860007ffffffffffffffffffffffffffffffffffffffffffffffffffffffffefffffc2f6040518663ffffffff1660e01b81526004018086815260200185815260200184815260200183815260200182815260200195505050505050604080518083038186803b15801561073957600080fd5b505af415801561074d573d6000803e3d6000fd5b505050506040513d604081101561076357600080fd5b8101908080519060200190929190805190602001909291905050508092508193505050915091565b60008073__EllipticCurve_________________________63c5e45aa4856000600281106107b557fe5b6020020151866001600281106107c757fe5b6020020151866000600281106107d957fe5b6020020151876001600281106107eb57fe5b602002015160007ffffffffffffffffffffffffffffffffffffffffffffffffffffffffefffffc2f6040518763ffffffff1660e01b8152600401808781526020018681526020018581526020018481526020018381526020018281526020019650505050505050604080518083038186803b15801561086957600080fd5b505af415801561087d573d6000803e3d6000fd5b505050506040513d604081101561089357600080fd5b81019080805190602001909291908051906020019092919050505080925081935050509250929050565b60008073__EllipticCurve_________________________638ba5ceeb8585600060077ffffffffffffffffffffffffffffffffffffffffffffffffffffffffefffffc2f6040518663ffffffff1660e01b8152600401808660ff1660ff16815260200185815260200184815260200183815260200182815260200195505050505050604080518083038186803b15801561095657600080fd5b505af415801561096a573d6000803e3d6000fd5b505050506040513d604081101561098057600080fd5b81019080805190602001909291908051906020019092919050505080925081935050509250929050565b60007ffffffffffffffffffffffffffffffffebaaedce6af48a03bbfd25e8cd0364141806109d457fe5b828408905092915050565b60008073__EllipticCurve_________________________63364b62d58486600060028110610a0a57fe5b602002015187600160028110610a1c57fe5b602002015160007ffffffffffffffffffffffffffffffffffffffffffffffffffffffffefffffc2f6040518663ffffffff1660e01b81526004018086815260200185815260200184815260200183815260200182815260200195505050505050604080518083038186803b158015610a9357600080fd5b505af4158015610aa7573d6000803e3d6000fd5b505050506040513d6040811015610abd57600080fd5b8101908080519060200190929190805190602001909291905050508092508193505050925092905056fea165627a7a72305820dbe8cbd05e0c4634677dbaddd6dbc9b0b40a4a11be6e02bbc2b21756d1019c590029",
  "source": "pragma solidity >=0.4.0 <0.6.0;\n\nimport \"./EllipticCurve.sol\";\n\n\n/**\n * @title Secp256k1 Elliptic Curve\n * @notice Example of particularization of Elliptic Curve for secp256k1 curve\n * @author Witnet Foundation\n */\nlibrary secp256k1 {\n\n  uint256 constant GX = 0x79BE667EF9DCBBAC55A06295CE870B07029BFCDB2DCE28D959F2815B16F81798;\n  uint256 constant GY = 0x483ADA7726A3C4655DA4FBFC0E1108A8FD17B448A68554199C47D08FFB10D4B8;\n  uint256 constant AA = 0;\n  uint256 constant BB = 7;\n  uint256 constant PP = 0xFFFFFFFFFFFFFFFFFFFFFFFFFFFFFFFFFFFFFFFFFFFFFFFFFFFFFFFEFFFFFC2F;\n  uint256 constant N = 0xFFFFFFFFFFFFFFFFFFFFFFFFFFFFFFFEBAAEDCE6AF48A03BBFD25E8CD0364141;\n\n  /// @dev Public Key derivation from private key\n  /// @param privKey The private key\n  /// @return (qx, qy) The Public Key\n  function derivePubKey(uint256 privKey) public pure returns(uint256 qx, uint256 qy) {\n    (qx, qy) = EllipticCurve.ecMul(\n      privKey,\n      GX,\n      GY,\n      AA,\n      PP\n    );\n  }\n\n  function ecMultG(uint256 s) public pure returns(uint256 qx, uint256 qy) {\n    (qx, qy) = EllipticCurve.ecMul(\n      s,\n      GX,\n      GY,\n      AA,\n      PP\n    );\n  }\n\n  function ecMult(uint256[2] memory keyImage, uint256 s) public pure returns(uint256 qx, uint256 qy) {\n    (qx, qy) = EllipticCurve.ecMul(\n      s,\n      keyImage[0],\n      keyImage[1],\n      AA,\n      PP\n    );\n  }\n\n  function ecAddd(uint256[2] memory x, uint256[2] memory y) public pure returns(uint256 qx, uint256 qy) {\n    (qx, qy) = EllipticCurve.ecAdd(\n      x[0],\n      x[1],\n      y[0],\n      y[1],\n      AA,\n      PP\n    );\n  }\n\n  function map_curve(uint8 prefix, uint256 x) public pure returns(uint256 beta, uint256 y3) {\n    (beta, y3) = EllipticCurve.deriveY(\n      prefix,\n      x, \n      AA, \n      BB, \n      PP\n    );\n    \n  }\n\n  function onCurveBeta(uint256 beta, uint256 y) public pure returns(bool) {\n    return beta == mulmod(y, y, PP);\n  }\n\n  function addmodn(uint256 x, uint256 n) public pure returns (uint256) {\n    return addmod(x, n, N);\n  }\n\n  function modn(uint256 x) public pure returns (uint256) {\n    return x % N;\n  }\n\n  function onCurve(uint256 x, uint256 y) public pure returns (bool b) {\n    b = EllipticCurve.isOnCurve(\n      x,\n      y,\n      AA,\n      BB,\n      PP\n    );\n \n  }\n\n\n\n\n\n\n\n\n\n\n}",
  "sourcePath": "/Users/suchetaaa/Desktop/Academics @IITB/Semester VII/Cryptocurrency/E-Voting/contracts/secp256k1.sol",
  "compiler": {
    "name": "solc",
    "version": "0.5.8+commit.23d335f2.Emscripten.clang"
  },
  "schemaVersion": "3.0.16",
  "updatedAt": "2019-10-16T06:39:15.569Z",
  "devdoc": {
    "author": "Witnet Foundation",
    "methods": {
      "derivePubKey(uint256)": {
        "details": "Public Key derivation from private key",
        "params": {
          "privKey": "The private key"
        },
        "return": "(qx, qy) The Public Key"
      }
    },
    "title": "Secp256k1 Elliptic Curve"
  },
  "userdoc": {
    "methods": {},
    "notice": "Example of particularization of Elliptic Curve for secp256k1 curve"
  }
}